{
  "contractName": "UBIBeneficiaryFactory",
  "abi": [
    {
      "anonymous": false,
      "inputs": [
        {
          "indexed": true,
          "internalType": "address",
          "name": "previousOwner",
          "type": "address"
        },
        {
          "indexed": true,
          "internalType": "address",
          "name": "newOwner",
          "type": "address"
        }
      ],
      "name": "OwnershipTransferred",
      "type": "event"
    },
    {
      "anonymous": false,
      "inputs": [
        {
          "indexed": false,
          "internalType": "address",
          "name": "_newUBIBeneficiaryAddress",
          "type": "address"
        }
      ],
      "name": "UBIBeneficiaryCreated",
      "type": "event"
    },
    {
      "anonymous": false,
      "inputs": [
        {
          "indexed": false,
          "internalType": "address",
          "name": "_newUBIReconciliationAccountAddress",
          "type": "address"
        }
      ],
      "name": "UBIReconciliationAccountCreated",
      "type": "event"
    },
    {
      "inputs": [],
      "name": "owner",
      "outputs": [
        {
          "internalType": "address",
          "name": "",
          "type": "address"
        }
      ],
      "stateMutability": "view",
      "type": "function",
      "constant": true
    },
    {
      "inputs": [],
      "name": "renounceOwnership",
      "outputs": [],
      "stateMutability": "nonpayable",
      "type": "function"
    },
    {
      "inputs": [
        {
          "internalType": "address",
          "name": "newOwner",
          "type": "address"
        }
      ],
      "name": "transferOwnership",
      "outputs": [],
      "stateMutability": "nonpayable",
      "type": "function"
    },
    {
      "inputs": [
        {
          "internalType": "contract IERC20",
          "name": "_cUSDToken",
          "type": "address"
        },
        {
          "internalType": "contract ERC20PresetMinterPauser",
          "name": "_cUBIAuthToken",
          "type": "address"
        },
        {
          "internalType": "string",
          "name": "_userId",
          "type": "string"
        }
      ],
      "name": "createUBIBeneficiary",
      "outputs": [
        {
          "internalType": "address",
          "name": "",
          "type": "address"
        }
      ],
      "stateMutability": "nonpayable",
      "type": "function"
    },
    {
      "inputs": [
        {
          "internalType": "contract IERC20",
          "name": "_cUSDToken",
          "type": "address"
        },
        {
          "internalType": "contract ERC20PresetMinterPauser",
          "name": "_cUBIAuthToken",
          "type": "address"
        },
        {
          "internalType": "address",
          "name": "_custodian",
          "type": "address"
        }
      ],
      "name": "createUBIReconciliationAccount",
      "outputs": [
        {
          "internalType": "address",
          "name": "",
          "type": "address"
        }
      ],
      "stateMutability": "nonpayable",
      "type": "function"
    }
  ],
  "bytecode": "0x608060405234801561001057600080fd5b50600061001b61006a565b600080546001600160a01b0319166001600160a01b0383169081178255604051929350917f8be0079c531659141344cd1fd0a4f28419497f9722a3daafe3b4186f6b6457e0908290a35061006e565b3390565b61405a8061007d6000396000f3fe608060405234801561001057600080fd5b50600436106100575760003560e01c8063497cf2ba1461005c578063715018a6146100b05780638da5cb5b146100ba5780639df137b9146100c2578063f2fde38b14610181575b600080fd5b6100946004803603606081101561007257600080fd5b506001600160a01b0381358116916020810135821691604090910135166101a7565b604080516001600160a01b039092168252519081900360200190f35b6100b86102a7565b005b61009461035b565b610094600480360360608110156100d857600080fd5b6001600160a01b03823581169260208101359091169181019060608101604082013564010000000081111561010c57600080fd5b82018360208201111561011e57600080fd5b8035906020019184600183028401116401000000008311171561014057600080fd5b91908080601f01602080910402602001604051908101604052809392919081815260200183838082843760009201919091525092955061036a945050505050565b6100b86004803603602081101561019757600080fd5b50356001600160a01b03166104d3565b6000808484846040516101b9906105e1565b6001600160a01b03938416815291831660208301529091166040808301919091525190819003606001906000f0801580156101f8573d6000803e3d6000fd5b509050806001600160a01b0316634fb2e45d336040518263ffffffff1660e01b815260040180826001600160a01b03168152602001915050600060405180830381600087803b15801561024a57600080fd5b505af115801561025e573d6000803e3d6000fd5b5050604080516001600160a01b038516815290517fd734ab9265095f0e94f7f665be6e5e268e28734950a4ef0a4226b480f91861df9350908190036020019150a1949350505050565b6102af6105dd565b6000546001600160a01b03908116911614610311576040805162461bcd60e51b815260206004820181905260248201527f4f776e61626c653a2063616c6c6572206973206e6f7420746865206f776e6572604482015290519081900360640190fd5b600080546040516001600160a01b03909116907f8be0079c531659141344cd1fd0a4f28419497f9722a3daafe3b4186f6b6457e0908390a3600080546001600160a01b0319169055565b6000546001600160a01b031690565b60008084848460405161037c906105ee565b80846001600160a01b03168152602001836001600160a01b0316815260200180602001828103825283818151815260200191508051906020019080838360005b838110156103d45781810151838201526020016103bc565b50505050905090810190601f1680156104015780820380516001836020036101000a031916815260200191505b50945050505050604051809103906000f080158015610424573d6000803e3d6000fd5b509050806001600160a01b0316634fb2e45d336040518263ffffffff1660e01b815260040180826001600160a01b03168152602001915050600060405180830381600087803b15801561047657600080fd5b505af115801561048a573d6000803e3d6000fd5b5050604080516001600160a01b038516815290517f645201a6c545bc10d5f346dbe7ec7bebdce2c8985206287b3e7d603e65c9ac859350908190036020019150a1949350505050565b6104db6105dd565b6000546001600160a01b0390811691161461053d576040805162461bcd60e51b815260206004820181905260248201527f4f776e61626c653a2063616c6c6572206973206e6f7420746865206f776e6572604482015290519081900360640190fd5b6001600160a01b0381166105825760405162461bcd60e51b8152600401808060200182810382526026815260200180613fff6026913960400191505060405180910390fd5b600080546040516001600160a01b03808516939216917f8be0079c531659141344cd1fd0a4f28419497f9722a3daafe3b4186f6b6457e091a3600080546001600160a01b0319166001600160a01b0392909216919091179055565b3390565b611ee5806105fc83390190565b611b1e806124e18339019056fe60806040523480156200001157600080fd5b5060405162001ee538038062001ee5833981810160405260608110156200003757600080fd5b5080516020808301516040938401518451808601909552600a8552692932b1b7b731b4b632b960b11b928501929092529192839083906000620000796200012e565b600080546001600160a01b0319166001600160a01b0383169081178255604051929350917f8be0079c531659141344cd1fd0a4f28419497f9722a3daafe3b4186f6b6457e0908290a35060018055600280546001600160a01b038086166001600160a01b03199283161790925560038054928516929091169190911790554360045580516200011090600590602084019062000201565b5050505062000125816200013260201b60201c565b5050506200029d565b3390565b6200013c6200012e565b6000546001600160a01b039081169116146200019f576040805162461bcd60e51b815260206004820181905260248201527f4f776e61626c653a2063616c6c6572206973206e6f7420746865206f776e6572604482015290519081900360640190fd5b600a80546001600160a01b038381166001600160a01b0319831617928390556040805192821680845293909116602083015280517fb2acc6aeb8e34e039efca33cef7c32bbb131a9cf351b43e1296d793364f693ab9281900390910190a15050565b828054600181600116156101000203166002900490600052602060002090601f016020900481019282601f106200024457805160ff191683800117855562000274565b8280016001018555821562000274579182015b828111156200027457825182559160200191906001019062000257565b506200028292915062000286565b5090565b5b8082111562000282576000815560010162000287565b611c3880620002ad6000396000f3fe608060405234801561001057600080fd5b506004361061012c5760003560e01c8063715018a6116100ad578063ab2f0e5111610071578063ab2f0e51146104d7578063c561d4b7146104df578063f1e46269146104e7578063f2fde38b146104ef578063fe41c0da146105155761012c565b8063715018a6146103ac5780638214b4f0146103b45780638837bd5d146104225780638da5cb5b146104c75780638f0d7e35146104cf5761012c565b8063523a0623116100f4578063523a062314610215578063589759191461021d57806367fac0131461029a5780636b024330146103085780636b0b36a6146103105761012c565b80630ea86ad8146101315780633f346d4d14610155578063403f3731146101ad5780634593144c146101d55780634fb2e45d146101ef575b600080fd5b610139610592565b604080516001600160a01b039092168252519081900360200190f35b61015d6105a1565b60408051602080825283518183015283519192839290830191858101910280838360005b83811015610199578181015183820152602001610181565b505050509050019250505060405180910390f35b6101d3600480360360208110156101c357600080fd5b50356001600160a01b03166105f9565b005b6101dd61065d565b60408051918252519081900360200190f35b6101d36004803603602081101561020557600080fd5b50356001600160a01b0316610663565b61015d6106c4565b61022561071a565b6040805160208082528351818301528351919283929083019185019080838360005b8381101561025f578181015183820152602001610247565b50505050905090810190601f16801561028c5780820380516001836020036101000a031916815260200191505b509250505060405180910390f35b6101d3600480360360408110156102b057600080fd5b810190602081018135600160201b8111156102ca57600080fd5b8201836020820111156102dc57600080fd5b803590602001918460018302840111600160201b831117156102fd57600080fd5b9193509150356107a8565b610139610a0b565b61032d6004803603602081101561032657600080fd5b5035610a1a565b6040518083815260200180602001828103825283818151815260200191508051906020019080838360005b83811015610370578181015183820152602001610358565b50505050905090810190601f16801561039d5780820380516001836020036101000a031916815260200191505b50935050505060405180910390f35b6101d3610b06565b6101dd600480360360208110156103ca57600080fd5b810190602081018135600160201b8111156103e457600080fd5b8201836020820111156103f657600080fd5b803590602001918460018302840111600160201b8311171561041757600080fd5b509092509050610ba8565b61043f6004803603602081101561043857600080fd5b5035610c62565b60405180848152602001831515815260200180602001828103825283818151815260200191508051906020019080838360005b8381101561048a578181015183820152602001610472565b50505050905090810190601f1680156104b75780820380516001836020036101000a031916815260200191505b5094505050505060405180910390f35b610139610d4d565b6101d3610d5c565b6101dd610f30565b610139611053565b6101dd611062565b6101d36004803603602081101561050557600080fd5b50356001600160a01b03166110de565b6101d36004803603606081101561052b57600080fd5b810190602081018135600160201b81111561054557600080fd5b82018360208201111561055757600080fd5b803590602001918460018302840111600160201b8311171561057857600080fd5b9193509150803590602001356001600160a01b03166111d6565b6002546001600160a01b031681565b606060098054806020026020016040519081016040528092919081815260200182805480156105ef57602002820191906000526020600020905b8154815260200190600101908083116105db575b5050505050905090565b610601611485565b6000546001600160a01b03908116911614610651576040805162461bcd60e51b81526020600482018190526024820152600080516020611bb9833981519152604482015290519081900360640190fd5b61065a81611489565b50565b60045481565b61066b611485565b6000546001600160a01b039081169116146106bb576040805162461bcd60e51b81526020600482018190526024820152600080516020611bb9833981519152604482015290519081900360640190fd5b61065a816110de565b606060078054806020026020016040519081016040528092919081815260200182805480156105ef57602002820191906000526020600020908154815260200190600101908083116105db575050505050905090565b6005805460408051602060026001851615610100026000190190941693909304601f810184900484028201840190925281815292918301828280156107a05780601f10610775576101008083540402835291602001916107a0565b820191906000526020600020905b81548152906001019060200180831161078357829003601f168201915b505050505081565b6107b0611485565b6000546001600160a01b03908116911614610800576040805162461bcd60e51b81526020600482018190526024820152600080516020611bb9833981519152604482015290519081900360640190fd5b60026001541415610846576040805162461bcd60e51b815260206004820152601f6024820152600080516020611b73833981519152604482015290519081900360640190fd5b6002600181905550600083836040518083838082843760408051919093018190039020600081815260066020529290922054919550501592506108c5915050576040805162461bcd60e51b815260206004820152600f60248201526e4552525f415554485f45584953545360881b604482015290519081900360640190fd5b60008181526006602052604090206108e1600282018686611aa2565b506001808201805460ff191690558382556007805480830182556000919091527fa66cc928b5edb82af9bd49922954155ab7b0942694bea4ce44661d9a8736c6880183905560405160058054309391929182918491600290821615610100026000190190911604801561098b5780601f1061096957610100808354040283529182019161098b565b820191906000526020600020905b815481529060010190602001808311610977575b505091505060405180910390207fded52e9baec1da58e2276748c456d3de1acb844589e794895392b474b8a136e787878760405180806020018381526020018281038252858582818152602001925080828437600083820152604051601f909101601f1916909201829003965090945050505050a3505060018055505050565b6003546001600160a01b031681565b60006060610a26611b20565b6008600085815260200190815260200160002060405180604001604052908160008201548152602001600182018054600181600116156101000203166002900480601f016020809104026020016040519081016040528092919081815260200182805460018160011615610100020316600290048015610ae75780601f10610abc57610100808354040283529160200191610ae7565b820191906000526020600020905b815481529060010190602001808311610aca57829003601f168201915b5050505050815250509050806000015181602001519250925050915091565b610b0e611485565b6000546001600160a01b03908116911614610b5e576040805162461bcd60e51b81526020600482018190526024820152600080516020611bb9833981519152604482015290519081900360640190fd5b600080546040516001600160a01b03909116907f8be0079c531659141344cd1fd0a4f28419497f9722a3daafe3b4186f6b6457e0908390a3600080546001600160a01b0319169055565b6000610bb2611485565b6000546001600160a01b03908116911614610c02576040805162461bcd60e51b81526020600482018190526024820152600080516020611bb9833981519152604482015290519081900360640190fd5b60026001541415610c48576040805162461bcd60e51b815260206004820152601f6024820152600080516020611b73833981519152604482015290519081900360640190fd5b6002600155610c578383611543565b600180559392505050565b6000806060610c6f611b3a565b60008581526006602090815260409182902082516060810184528154815260018083015460ff161515828501526002808401805487516101009482161594909402600019011691909104601f81018690048602830186018752808352929593949386019391929091830182828015610d285780601f10610cfd57610100808354040283529160200191610d28565b820191906000526020600020905b815481529060010190602001808311610d0b57829003601f168201915b5050509190925250508151602083015160409093015190989297509550909350505050565b6000546001600160a01b031690565b610d64611485565b6000546001600160a01b03908116911614610db4576040805162461bcd60e51b81526020600482018190526024820152600080516020611bb9833981519152604482015290519081900360640190fd5b60026001541415610dfa576040805162461bcd60e51b815260206004820152601f6024820152600080516020611b73833981519152604482015290519081900360640190fd5b6002600181905554604080516370a0823160e01b815230600482015290516000926001600160a01b0316916370a08231916024808301926020929190829003018186803b158015610e4a57600080fd5b505afa158015610e5e573d6000803e3d6000fd5b505050506040513d6020811015610e7457600080fd5b5051905080610ec5576040805162461bcd60e51b81526020600482015260186024820152774552525f4e4f5448494e475f544f5f5245434f4e43494c4560401b604482015290519081900360640190fd5b600a54600254610ee2916001600160a01b0391821691168361172b565b600a54604080516001600160a01b0390921682526020820183905280517fa195dbbb3e5a259873c9e9865d547e8693262a378559ad7efb64666191780b639281900390910190a15060018055565b600254604080516370a0823160e01b8152306004820152905160009283926001600160a01b03909116916370a0823191602480820192602092909190829003018186803b158015610f8057600080fd5b505afa158015610f94573d6000803e3d6000fd5b505050506040513d6020811015610faa57600080fd5b5051600354604080516370a0823160e01b815230600482015290519293506000926001600160a01b03909216916370a0823191602480820192602092909190829003018186803b158015610ffd57600080fd5b505afa158015611011573d6000803e3d6000fd5b505050506040513d602081101561102757600080fd5b505190506000611035611782565b905061104b816110458585611787565b90611787565b935050505090565b600a546001600160a01b031690565b600354604080516370a0823160e01b815230600482015290516000926001600160a01b0316916370a08231916024808301926020929190829003018186803b1580156110ad57600080fd5b505afa1580156110c1573d6000803e3d6000fd5b505050506040513d60208110156110d757600080fd5b5051905090565b6110e6611485565b6000546001600160a01b03908116911614611136576040805162461bcd60e51b81526020600482018190526024820152600080516020611bb9833981519152604482015290519081900360640190fd5b6001600160a01b03811661117b5760405162461bcd60e51b8152600401808060200182810382526026815260200180611b936026913960400191505060405180910390fd5b600080546040516001600160a01b03808516939216917f8be0079c531659141344cd1fd0a4f28419497f9722a3daafe3b4186f6b6457e091a3600080546001600160a01b0319166001600160a01b0392909216919091179055565b6111de611485565b6000546001600160a01b0390811691161461122e576040805162461bcd60e51b81526020600482018190526024820152600080516020611bb9833981519152604482015290519081900360640190fd5b60026001541415611274576040805162461bcd60e51b815260206004820152601f6024820152600080516020611b73833981519152604482015290519081900360640190fd5b6002600181905550600084846040518083838082843760408051919093018190039020600081815260086020529290922054919550501592506112f5915050576040805162461bcd60e51b81526020600482015260116024820152704552525f534554544c455f45584953545360781b604482015290519081900360640190fd5b60008181526006602052604090205415801590611324575060008181526006602052604090206001015460ff16155b15611335576113338585611543565b505b6009805460018181019092557f6e1540171b6c0c960b71a7020d9f60077f6af931a8bbf590da0223dacf75c7af018290556000828152600860205260409020906113829082018787611aa2565b5083815560025461139d906001600160a01b0316848661172b565b306001600160a01b0316600560405180828054600181600116156101000203166002900480156114045780601f106113e2576101008083540402835291820191611404565b820191906000526020600020905b8154815290600101906020018083116113f0575b505091505060405180910390207f4db0691b564b0128897bbc27abdf9aff03f8a8325f87658085962d90aabdd8fa88888860405180806020018381526020018281038252858582818152602001925080828437600083820152604051601f909101601f1916909201829003965090945050505050a350506001805550505050565b3390565b611491611485565b6000546001600160a01b039081169116146114e1576040805162461bcd60e51b81526020600482018190526024820152600080516020611bb9833981519152604482015290519081900360640190fd5b600a80546001600160a01b038381166001600160a01b0319831617928390556040805192821680845293909116602083015280517fb2acc6aeb8e34e039efca33cef7c32bbb131a9cf351b43e1296d793364f693ab9281900390910190a15050565b600061154d611485565b6000546001600160a01b0390811691161461159d576040805162461bcd60e51b81526020600482018190526024820152600080516020611bb9833981519152604482015290519081900360640190fd5b600083836040518083838082843760408051919093018190039020600081815260066020529290922080549296509450501515915061161a9050576040805162461bcd60e51b815260206004820152601260248201527111549497d055551217d393d517d1561254d560721b604482015290519081900360640190fd5b6001818101805460ff191690911790558054600354611646916001600160a01b0390911690339061172b565b306001600160a01b0316600560405180828054600181600116156101000203166002900480156116ad5780601f1061168b5761010080835404028352918201916116ad565b820191906000526020600020905b815481529060010190602001808311611699575b5050604080519182900382208654602084018190528284529183018a905293507f4235c71bfde7f4d62e8d4d67b17e9ec2cdff2d762b1b15b990c70f3e09b9df9e925089918991908060608101858580828437600083820152604051601f909101601f1916909201829003965090945050505050a354949350505050565b604080516001600160a01b038416602482015260448082018490528251808303909101815260649091019091526020810180516001600160e01b031663a9059cbb60e01b17905261177d9084906117d0565b505050565b600090565b60006117c983836040518060400160405280601e81526020017f536166654d6174683a207375627472616374696f6e206f766572666c6f770000815250611881565b9392505050565b6060611825826040518060400160405280602081526020017f5361666545524332303a206c6f772d6c6576656c2063616c6c206661696c6564815250856001600160a01b03166119189092919063ffffffff16565b80519091501561177d5780806020019051602081101561184457600080fd5b505161177d5760405162461bcd60e51b815260040180806020018281038252602a815260200180611bd9602a913960400191505060405180910390fd5b600081848411156119105760405162461bcd60e51b81526004018080602001828103825283818151815260200191508051906020019080838360005b838110156118d55781810151838201526020016118bd565b50505050905090810190601f1680156119025780820380516001836020036101000a031916815260200191505b509250505060405180910390fd5b505050900390565b6060611927848460008561192f565b949350505050565b606061193a85611a9c565b61198b576040805162461bcd60e51b815260206004820152601d60248201527f416464726573733a2063616c6c20746f206e6f6e2d636f6e7472616374000000604482015290519081900360640190fd5b60006060866001600160a01b031685876040518082805190602001908083835b602083106119ca5780518252601f1990920191602091820191016119ab565b6001836020036101000a03801982511681845116808217855250505050505090500191505060006040518083038185875af1925050503d8060008114611a2c576040519150601f19603f3d011682016040523d82523d6000602084013e611a31565b606091505b50915091508115611a455791506119279050565b805115611a555780518082602001fd5b60405162461bcd60e51b81526020600482018181528651602484015286518793919283926044019190850190808383600083156118d55781810151838201526020016118bd565b3b151590565b828054600181600116156101000203166002900490600052602060002090601f016020900481019282601f10611ae35782800160ff19823516178555611b10565b82800160010185558215611b10579182015b82811115611b10578235825591602001919060010190611af5565b50611b1c929150611b5d565b5090565b604051806040016040528060008152602001606081525090565b604051806060016040528060008152602001600015158152602001606081525090565b5b80821115611b1c5760008155600101611b5e56fe5265656e7472616e637947756172643a207265656e7472616e742063616c6c004f776e61626c653a206e6577206f776e657220697320746865207a65726f20616464726573734f776e61626c653a2063616c6c6572206973206e6f7420746865206f776e65725361666545524332303a204552433230206f7065726174696f6e20646964206e6f742073756363656564a2646970667358221220f5eb85a7d2e73d7d7b92cc94cc4de8298d0d28a0f4f4dc2d88164455536d223564736f6c634300060c003360806040523480156200001157600080fd5b5060405162001b1e38038062001b1e833981810160405260608110156200003757600080fd5b815160208301516040808501805191519395929483019291846401000000008211156200006357600080fd5b9083019060208201858111156200007957600080fd5b82516401000000008111828201881017156200009457600080fd5b82525081516020918201929091019080838360005b83811015620000c3578181015183820152602001620000a9565b50505050905090810190601f168015620000f15780820380516001836020036101000a031916815260200191505b5060405250505060006200010a620001ab60201b60201c565b600080546001600160a01b0319166001600160a01b0383169081178255604051929350917f8be0079c531659141344cd1fd0a4f28419497f9722a3daafe3b4186f6b6457e0908290a35060018055600280546001600160a01b038086166001600160a01b0319928316179092556003805492851692909116919091179055436004558051620001a1906005906020840190620001af565b505050506200024b565b3390565b828054600181600116156101000203166002900490600052602060002090601f016020900481019282601f10620001f257805160ff191683800117855562000222565b8280016001018555821562000222579182015b828111156200022257825182559160200191906001019062000205565b506200023092915062000234565b5090565b5b8082111562000230576000815560010162000235565b6118c3806200025b6000396000f3fe608060405234801561001057600080fd5b50600436106100eb5760003560e01c80636b0b36a6116100925780636b0b36a6146102a9578063715018a6146103455780638214b4f01461034d5780638837bd5d146103bb5780638da5cb5b14610460578063ab2f0e5114610468578063f1e4626914610470578063f2fde38b14610478578063fe41c0da1461049e576100eb565b80630ea86ad8146100f05780633f346d4d146101145780634593144c1461016c5780634fb2e45d14610186578063523a0623146101ae57806358975919146101b657806367fac013146102335780636b024330146102a1575b600080fd5b6100f861051b565b604080516001600160a01b039092168252519081900360200190f35b61011c61052a565b60408051602080825283518183015283519192839290830191858101910280838360005b83811015610158578181015183820152602001610140565b505050509050019250505060405180910390f35b610174610582565b60408051918252519081900360200190f35b6101ac6004803603602081101561019c57600080fd5b50356001600160a01b0316610588565b005b61011c6105ec565b6101be610642565b6040805160208082528351818301528351919283929083019185019080838360005b838110156101f85781810151838201526020016101e0565b50505050905090810190601f1680156102255780820380516001836020036101000a031916815260200191505b509250505060405180910390f35b6101ac6004803603604081101561024957600080fd5b810190602081018135600160201b81111561026357600080fd5b82018360208201111561027557600080fd5b803590602001918460018302840111600160201b8311171561029657600080fd5b9193509150356106d0565b6100f8610933565b6102c6600480360360208110156102bf57600080fd5b5035610942565b6040518083815260200180602001828103825283818151815260200191508051906020019080838360005b838110156103095781810151838201526020016102f1565b50505050905090810190601f1680156103365780820380516001836020036101000a031916815260200191505b50935050505060405180910390f35b6101ac610a2e565b6101746004803603602081101561036357600080fd5b810190602081018135600160201b81111561037d57600080fd5b82018360208201111561038f57600080fd5b803590602001918460018302840111600160201b831117156103b057600080fd5b509092509050610ad0565b6103d8600480360360208110156103d157600080fd5b5035610b8a565b60405180848152602001831515815260200180602001828103825283818151815260200191508051906020019080838360005b8381101561042357818101518382015260200161040b565b50505050905090810190601f1680156104505780820380516001836020036101000a031916815260200191505b5094505050505060405180910390f35b6100f8610c75565b610174610c84565b610174610da7565b6101ac6004803603602081101561048e57600080fd5b50356001600160a01b0316610e23565b6101ac600480360360608110156104b457600080fd5b810190602081018135600160201b8111156104ce57600080fd5b8201836020820111156104e057600080fd5b803590602001918460018302840111600160201b8311171561050157600080fd5b9193509150803590602001356001600160a01b0316610f1b565b6002546001600160a01b031681565b6060600980548060200260200160405190810160405280929190818152602001828054801561057857602002820191906000526020600020905b815481526020019060010190808311610564575b5050505050905090565b60045481565b6105906111ca565b6000546001600160a01b039081169116146105e0576040805162461bcd60e51b81526020600482018190526024820152600080516020611844833981519152604482015290519081900360640190fd5b6105e981610e23565b50565b606060078054806020026020016040519081016040528092919081815260200182805480156105785760200282019190600052602060002090815481526020019060010190808311610564575050505050905090565b6005805460408051602060026001851615610100026000190190941693909304601f810184900484028201840190925281815292918301828280156106c85780601f1061069d576101008083540402835291602001916106c8565b820191906000526020600020905b8154815290600101906020018083116106ab57829003601f168201915b505050505081565b6106d86111ca565b6000546001600160a01b03908116911614610728576040805162461bcd60e51b81526020600482018190526024820152600080516020611844833981519152604482015290519081900360640190fd5b6002600154141561076e576040805162461bcd60e51b815260206004820152601f60248201526000805160206117fe833981519152604482015290519081900360640190fd5b6002600181905550600083836040518083838082843760408051919093018190039020600081815260066020529290922054919550501592506107ed915050576040805162461bcd60e51b815260206004820152600f60248201526e4552525f415554485f45584953545360881b604482015290519081900360640190fd5b600081815260066020526040902061080960028201868661172d565b506001808201805460ff191690558382556007805480830182556000919091527fa66cc928b5edb82af9bd49922954155ab7b0942694bea4ce44661d9a8736c688018390556040516005805430939192918291849160029082161561010002600019019091160480156108b35780601f106108915761010080835404028352918201916108b3565b820191906000526020600020905b81548152906001019060200180831161089f575b505091505060405180910390207fded52e9baec1da58e2276748c456d3de1acb844589e794895392b474b8a136e787878760405180806020018381526020018281038252858582818152602001925080828437600083820152604051601f909101601f1916909201829003965090945050505050a3505060018055505050565b6003546001600160a01b031681565b6000606061094e6117ab565b6008600085815260200190815260200160002060405180604001604052908160008201548152602001600182018054600181600116156101000203166002900480601f016020809104026020016040519081016040528092919081815260200182805460018160011615610100020316600290048015610a0f5780601f106109e457610100808354040283529160200191610a0f565b820191906000526020600020905b8154815290600101906020018083116109f257829003601f168201915b5050505050815250509050806000015181602001519250925050915091565b610a366111ca565b6000546001600160a01b03908116911614610a86576040805162461bcd60e51b81526020600482018190526024820152600080516020611844833981519152604482015290519081900360640190fd5b600080546040516001600160a01b03909116907f8be0079c531659141344cd1fd0a4f28419497f9722a3daafe3b4186f6b6457e0908390a3600080546001600160a01b0319169055565b6000610ada6111ca565b6000546001600160a01b03908116911614610b2a576040805162461bcd60e51b81526020600482018190526024820152600080516020611844833981519152604482015290519081900360640190fd5b60026001541415610b70576040805162461bcd60e51b815260206004820152601f60248201526000805160206117fe833981519152604482015290519081900360640190fd5b6002600155610b7f83836111ce565b600180559392505050565b6000806060610b976117c5565b60008581526006602090815260409182902082516060810184528154815260018083015460ff161515828501526002808401805487516101009482161594909402600019011691909104601f81018690048602830186018752808352929593949386019391929091830182828015610c505780601f10610c2557610100808354040283529160200191610c50565b820191906000526020600020905b815481529060010190602001808311610c3357829003601f168201915b5050509190925250508151602083015160409093015190989297509550909350505050565b6000546001600160a01b031690565b600254604080516370a0823160e01b8152306004820152905160009283926001600160a01b03909116916370a0823191602480820192602092909190829003018186803b158015610cd457600080fd5b505afa158015610ce8573d6000803e3d6000fd5b505050506040513d6020811015610cfe57600080fd5b5051600354604080516370a0823160e01b815230600482015290519293506000926001600160a01b03909216916370a0823191602480820192602092909190829003018186803b158015610d5157600080fd5b505afa158015610d65573d6000803e3d6000fd5b505050506040513d6020811015610d7b57600080fd5b505190506000610d896113b6565b9050610d9f81610d9985856113bb565b906113bb565b935050505090565b600354604080516370a0823160e01b815230600482015290516000926001600160a01b0316916370a08231916024808301926020929190829003018186803b158015610df257600080fd5b505afa158015610e06573d6000803e3d6000fd5b505050506040513d6020811015610e1c57600080fd5b5051905090565b610e2b6111ca565b6000546001600160a01b03908116911614610e7b576040805162461bcd60e51b81526020600482018190526024820152600080516020611844833981519152604482015290519081900360640190fd5b6001600160a01b038116610ec05760405162461bcd60e51b815260040180806020018281038252602681526020018061181e6026913960400191505060405180910390fd5b600080546040516001600160a01b03808516939216917f8be0079c531659141344cd1fd0a4f28419497f9722a3daafe3b4186f6b6457e091a3600080546001600160a01b0319166001600160a01b0392909216919091179055565b610f236111ca565b6000546001600160a01b03908116911614610f73576040805162461bcd60e51b81526020600482018190526024820152600080516020611844833981519152604482015290519081900360640190fd5b60026001541415610fb9576040805162461bcd60e51b815260206004820152601f60248201526000805160206117fe833981519152604482015290519081900360640190fd5b60026001819055506000848460405180838380828437604080519190930181900390206000818152600860205292909220549195505015925061103a915050576040805162461bcd60e51b81526020600482015260116024820152704552525f534554544c455f45584953545360781b604482015290519081900360640190fd5b60008181526006602052604090205415801590611069575060008181526006602052604090206001015460ff16155b1561107a5761107885856111ce565b505b6009805460018181019092557f6e1540171b6c0c960b71a7020d9f60077f6af931a8bbf590da0223dacf75c7af018290556000828152600860205260409020906110c7908201878761172d565b508381556002546110e2906001600160a01b03168486611404565b306001600160a01b0316600560405180828054600181600116156101000203166002900480156111495780601f10611127576101008083540402835291820191611149565b820191906000526020600020905b815481529060010190602001808311611135575b505091505060405180910390207f4db0691b564b0128897bbc27abdf9aff03f8a8325f87658085962d90aabdd8fa88888860405180806020018381526020018281038252858582818152602001925080828437600083820152604051601f909101601f1916909201829003965090945050505050a350506001805550505050565b3390565b60006111d86111ca565b6000546001600160a01b03908116911614611228576040805162461bcd60e51b81526020600482018190526024820152600080516020611844833981519152604482015290519081900360640190fd5b60008383604051808383808284376040805191909301819003902060008181526006602052929092208054929650945050151591506112a59050576040805162461bcd60e51b815260206004820152601260248201527111549497d055551217d393d517d1561254d560721b604482015290519081900360640190fd5b6001818101805460ff1916909117905580546003546112d1916001600160a01b03909116903390611404565b306001600160a01b0316600560405180828054600181600116156101000203166002900480156113385780601f10611316576101008083540402835291820191611338565b820191906000526020600020905b815481529060010190602001808311611324575b5050604080519182900382208654602084018190528284529183018a905293507f4235c71bfde7f4d62e8d4d67b17e9ec2cdff2d762b1b15b990c70f3e09b9df9e925089918991908060608101858580828437600083820152604051601f909101601f1916909201829003965090945050505050a354949350505050565b600090565b60006113fd83836040518060400160405280601e81526020017f536166654d6174683a207375627472616374696f6e206f766572666c6f77000081525061145b565b9392505050565b604080516001600160a01b038416602482015260448082018490528251808303909101815260649091019091526020810180516001600160e01b031663a9059cbb60e01b1790526114569084906114f2565b505050565b600081848411156114ea5760405162461bcd60e51b81526004018080602001828103825283818151815260200191508051906020019080838360005b838110156114af578181015183820152602001611497565b50505050905090810190601f1680156114dc5780820380516001836020036101000a031916815260200191505b509250505060405180910390fd5b505050900390565b6060611547826040518060400160405280602081526020017f5361666545524332303a206c6f772d6c6576656c2063616c6c206661696c6564815250856001600160a01b03166115a39092919063ffffffff16565b8051909150156114565780806020019051602081101561156657600080fd5b50516114565760405162461bcd60e51b815260040180806020018281038252602a815260200180611864602a913960400191505060405180910390fd5b60606115b284846000856115ba565b949350505050565b60606115c585611727565b611616576040805162461bcd60e51b815260206004820152601d60248201527f416464726573733a2063616c6c20746f206e6f6e2d636f6e7472616374000000604482015290519081900360640190fd5b60006060866001600160a01b031685876040518082805190602001908083835b602083106116555780518252601f199092019160209182019101611636565b6001836020036101000a03801982511681845116808217855250505050505090500191505060006040518083038185875af1925050503d80600081146116b7576040519150601f19603f3d011682016040523d82523d6000602084013e6116bc565b606091505b509150915081156116d05791506115b29050565b8051156116e05780518082602001fd5b60405162461bcd60e51b81526020600482018181528651602484015286518793919283926044019190850190808383600083156114af578181015183820152602001611497565b3b151590565b828054600181600116156101000203166002900490600052602060002090601f016020900481019282601f1061176e5782800160ff1982351617855561179b565b8280016001018555821561179b579182015b8281111561179b578235825591602001919060010190611780565b506117a79291506117e8565b5090565b604051806040016040528060008152602001606081525090565b604051806060016040528060008152602001600015158152602001606081525090565b5b808211156117a757600081556001016117e956fe5265656e7472616e637947756172643a207265656e7472616e742063616c6c004f776e61626c653a206e6577206f776e657220697320746865207a65726f20616464726573734f776e61626c653a2063616c6c6572206973206e6f7420746865206f776e65725361666545524332303a204552433230206f7065726174696f6e20646964206e6f742073756363656564a2646970667358221220988794795d625e4b1c09fbbfc3caae0c1543bdb78cfd1b011c96d591a30e6ae564736f6c634300060c00334f776e61626c653a206e6577206f776e657220697320746865207a65726f2061646472657373a264697066735822122064c6676b344d2828c94b9e4eb12d55b71f8a9cc5fdd31d28226b4f77753821b164736f6c634300060c0033",
  "immutableReferences": {},
  "source": "// SPDX-License-Identifier: MIT\npragma solidity 0.6.12;\n\nimport \"./UBIBeneficiary.sol\";\nimport \"./UBIReconciliationAccount.sol\";\nimport \"./IUBIBeneficiaryFactory.sol\";\nimport \"@openzeppelin/contracts/access/Ownable.sol\";\n\ncontract UBIBeneficiaryFactory is IUBIBeneficiaryFactory, Ownable {\n    /**\n     * @notice Create a new UBI Beneficiary contract\n     *\n     * @param _cUSDToken  Address of the cUSD token contract\n     * @param _cUBIAuthToken Address of the cUBIAuth token contract\n     * @param _userId UserId of the new beneficiary\n     *\n     */\n    function createUBIBeneficiary(\n        IERC20 _cUSDToken,\n        ERC20PresetMinterPauser _cUBIAuthToken,\n        string memory _userId\n    ) external override returns (address) {\n        UBIBeneficiary newAccount = new UBIBeneficiary(_cUSDToken, _cUBIAuthToken, _userId);\n        newAccount.transferOwner(msg.sender);\n        emit UBIBeneficiaryCreated(address(newAccount));\n        return address(newAccount);\n    }\n\n    /**\n     * @notice Create a new UBI Reconciliation Account\n     *\n     * @param _cUSDToken  Address of the cUSD token contract\n     * @param _cUBIAuthToken Address of the cUBIAuth token contract\n     * @param _custodian Address of the reconciliation custodian account\n     *\n     */\n    function createUBIReconciliationAccount(\n        IERC20 _cUSDToken,\n        ERC20PresetMinterPauser _cUBIAuthToken,\n        address _custodian\n    ) external override returns (address) {\n        UBIReconciliationAccount newAccount =\n            new UBIReconciliationAccount(_cUSDToken, _cUBIAuthToken, _custodian);\n        newAccount.transferOwner(msg.sender);\n        emit UBIReconciliationAccountCreated(address(newAccount));\n        return address(newAccount);\n    }\n}\n",
  "sourcePath": "/home/boyd/git/keyko/celo-ubi-contract/contracts/UBIBeneficiaryFactory.sol",
  "compiler": {
    "name": "solc",
    "version": "0.6.12+commit.27d51765.Emscripten.clang"
  },
  "schemaVersion": "3.3.0",
  "updatedAt": "2021-01-04T10:52:29.760Z",
  "networkType": "ethereum",
  "devdoc": {
    "kind": "dev",
    "methods": {
      "createUBIBeneficiary(address,address,string)": {
        "params": {
          "_cUBIAuthToken": "Address of the cUBIAuth token contract",
          "_cUSDToken": "Address of the cUSD token contract",
          "_userId": "UserId of the new beneficiary"
        }
      },
      "createUBIReconciliationAccount(address,address,address)": {
        "params": {
          "_cUBIAuthToken": "Address of the cUBIAuth token contract",
          "_cUSDToken": "Address of the cUSD token contract",
          "_custodian": "Address of the reconciliation custodian account"
        }
      },
      "owner()": {
        "details": "Returns the address of the current owner."
      },
      "renounceOwnership()": {
        "details": "Leaves the contract without owner. It will not be possible to call `onlyOwner` functions anymore. Can only be called by the current owner. NOTE: Renouncing ownership will leave the contract without an owner, thereby removing any functionality that is only available to the owner."
      },
      "transferOwnership(address)": {
        "details": "Transfers ownership of the contract to a new account (`newOwner`). Can only be called by the current owner."
      }
    },
    "version": 1
  },
  "userdoc": {
    "events": {
      "UBIBeneficiaryCreated(address)": {
        "notice": "Triggered when a new UBIBeneficiary has been created"
      },
      "UBIReconciliationAccountCreated(address)": {
        "notice": "Triggered when a new UBIReconciliationAccount has been created"
      }
    },
    "kind": "user",
    "methods": {
      "createUBIBeneficiary(address,address,string)": {
        "notice": "Create a new UBI Beneficiary contract"
      },
      "createUBIReconciliationAccount(address,address,address)": {
        "notice": "Create a new UBI Reconciliation Account"
      }
    },
    "version": 1
  }
}