{
  "contractName": "UBIBeneficiary",
  "abi": [
    {
      "inputs": [
        {
          "internalType": "contract IERC20",
          "name": "_cUSDToken",
          "type": "address"
        },
        {
          "internalType": "contract ERC20PresetMinterPauser",
          "name": "_cUBIAuthToken",
          "type": "address"
        },
        {
          "internalType": "string",
          "name": "_userId",
          "type": "string"
        }
      ],
      "stateMutability": "nonpayable",
      "type": "constructor"
    },
    {
      "anonymous": false,
      "inputs": [
        {
          "indexed": true,
          "internalType": "bytes32",
          "name": "_userId",
          "type": "bytes32"
        },
        {
          "indexed": true,
          "internalType": "address",
          "name": "_ubiAddress",
          "type": "address"
        },
        {
          "indexed": false,
          "internalType": "string",
          "name": "_txId",
          "type": "string"
        },
        {
          "indexed": false,
          "internalType": "uint256",
          "name": "_amt",
          "type": "uint256"
        }
      ],
      "name": "AuthorizationEvent",
      "type": "event"
    },
    {
      "anonymous": false,
      "inputs": [
        {
          "indexed": true,
          "internalType": "bytes32",
          "name": "_userId",
          "type": "bytes32"
        },
        {
          "indexed": true,
          "internalType": "address",
          "name": "_ubiAddress",
          "type": "address"
        },
        {
          "indexed": false,
          "internalType": "string",
          "name": "_txId",
          "type": "string"
        },
        {
          "indexed": false,
          "internalType": "uint256",
          "name": "_amt",
          "type": "uint256"
        }
      ],
      "name": "DeauthorizationEvent",
      "type": "event"
    },
    {
      "anonymous": false,
      "inputs": [
        {
          "indexed": true,
          "internalType": "address",
          "name": "previousOwner",
          "type": "address"
        },
        {
          "indexed": true,
          "internalType": "address",
          "name": "newOwner",
          "type": "address"
        }
      ],
      "name": "OwnershipTransferred",
      "type": "event"
    },
    {
      "anonymous": false,
      "inputs": [
        {
          "indexed": true,
          "internalType": "bytes32",
          "name": "_userId",
          "type": "bytes32"
        },
        {
          "indexed": true,
          "internalType": "address",
          "name": "_ubiAddress",
          "type": "address"
        },
        {
          "indexed": false,
          "internalType": "string",
          "name": "_txId",
          "type": "string"
        },
        {
          "indexed": false,
          "internalType": "uint256",
          "name": "_amt",
          "type": "uint256"
        }
      ],
      "name": "SettlementEvent",
      "type": "event"
    },
    {
      "inputs": [],
      "name": "cUBIAuthToken",
      "outputs": [
        {
          "internalType": "contract ERC20PresetMinterPauser",
          "name": "",
          "type": "address"
        }
      ],
      "stateMutability": "view",
      "type": "function"
    },
    {
      "inputs": [],
      "name": "cUSDToken",
      "outputs": [
        {
          "internalType": "contract IERC20",
          "name": "",
          "type": "address"
        }
      ],
      "stateMutability": "view",
      "type": "function"
    },
    {
      "inputs": [],
      "name": "createdBlock",
      "outputs": [
        {
          "internalType": "uint256",
          "name": "",
          "type": "uint256"
        }
      ],
      "stateMutability": "view",
      "type": "function"
    },
    {
      "inputs": [],
      "name": "owner",
      "outputs": [
        {
          "internalType": "address",
          "name": "",
          "type": "address"
        }
      ],
      "stateMutability": "view",
      "type": "function"
    },
    {
      "inputs": [],
      "name": "renounceOwnership",
      "outputs": [],
      "stateMutability": "nonpayable",
      "type": "function"
    },
    {
      "inputs": [
        {
          "internalType": "address",
          "name": "newOwner",
          "type": "address"
        }
      ],
      "name": "transferOwnership",
      "outputs": [],
      "stateMutability": "nonpayable",
      "type": "function"
    },
    {
      "inputs": [],
      "name": "userId",
      "outputs": [
        {
          "internalType": "string",
          "name": "",
          "type": "string"
        }
      ],
      "stateMutability": "view",
      "type": "function"
    },
    {
      "inputs": [],
      "name": "getSettlementKeys",
      "outputs": [
        {
          "internalType": "bytes32[]",
          "name": "",
          "type": "bytes32[]"
        }
      ],
      "stateMutability": "view",
      "type": "function"
    },
    {
      "inputs": [],
      "name": "getAuthorizationKeys",
      "outputs": [
        {
          "internalType": "bytes32[]",
          "name": "",
          "type": "bytes32[]"
        }
      ],
      "stateMutability": "view",
      "type": "function"
    },
    {
      "inputs": [
        {
          "internalType": "bytes32",
          "name": "_key",
          "type": "bytes32"
        }
      ],
      "name": "getAuthorizationAtKey",
      "outputs": [
        {
          "internalType": "uint256",
          "name": "",
          "type": "uint256"
        },
        {
          "internalType": "bool",
          "name": "",
          "type": "bool"
        },
        {
          "internalType": "string",
          "name": "",
          "type": "string"
        }
      ],
      "stateMutability": "view",
      "type": "function"
    },
    {
      "inputs": [
        {
          "internalType": "bytes32",
          "name": "_key",
          "type": "bytes32"
        }
      ],
      "name": "getSettlementAtKey",
      "outputs": [
        {
          "internalType": "uint256",
          "name": "",
          "type": "uint256"
        },
        {
          "internalType": "string",
          "name": "",
          "type": "string"
        }
      ],
      "stateMutability": "view",
      "type": "function"
    },
    {
      "inputs": [],
      "name": "availableBalance",
      "outputs": [
        {
          "internalType": "uint256",
          "name": "",
          "type": "uint256"
        }
      ],
      "stateMutability": "view",
      "type": "function"
    },
    {
      "inputs": [],
      "name": "authorizationBalance",
      "outputs": [
        {
          "internalType": "uint256",
          "name": "",
          "type": "uint256"
        }
      ],
      "stateMutability": "view",
      "type": "function"
    },
    {
      "inputs": [
        {
          "internalType": "string",
          "name": "_txId",
          "type": "string"
        }
      ],
      "name": "deauthorize",
      "outputs": [
        {
          "internalType": "uint256",
          "name": "",
          "type": "uint256"
        }
      ],
      "stateMutability": "nonpayable",
      "type": "function"
    },
    {
      "inputs": [
        {
          "internalType": "string",
          "name": "_txId",
          "type": "string"
        },
        {
          "internalType": "uint256",
          "name": "_value",
          "type": "uint256"
        }
      ],
      "name": "authorize",
      "outputs": [],
      "stateMutability": "nonpayable",
      "type": "function"
    },
    {
      "inputs": [
        {
          "internalType": "string",
          "name": "_txId",
          "type": "string"
        },
        {
          "internalType": "uint256",
          "name": "_value",
          "type": "uint256"
        },
        {
          "internalType": "address",
          "name": "_reconciliationAccount",
          "type": "address"
        }
      ],
      "name": "settle",
      "outputs": [],
      "stateMutability": "nonpayable",
      "type": "function"
    },
    {
      "inputs": [
        {
          "internalType": "address",
          "name": "newOwner",
          "type": "address"
        }
      ],
      "name": "transferOwner",
      "outputs": [],
      "stateMutability": "nonpayable",
      "type": "function"
    }
  ],
  "bytecode": "0x60806040523480156200001157600080fd5b5060405162001b1e38038062001b1e833981810160405260608110156200003757600080fd5b815160208301516040808501805191519395929483019291846401000000008211156200006357600080fd5b9083019060208201858111156200007957600080fd5b82516401000000008111828201881017156200009457600080fd5b82525081516020918201929091019080838360005b83811015620000c3578181015183820152602001620000a9565b50505050905090810190601f168015620000f15780820380516001836020036101000a031916815260200191505b5060405250505060006200010a620001ab60201b60201c565b600080546001600160a01b0319166001600160a01b0383169081178255604051929350917f8be0079c531659141344cd1fd0a4f28419497f9722a3daafe3b4186f6b6457e0908290a35060018055600280546001600160a01b038086166001600160a01b0319928316179092556003805492851692909116919091179055436004558051620001a1906005906020840190620001af565b505050506200024b565b3390565b828054600181600116156101000203166002900490600052602060002090601f016020900481019282601f10620001f257805160ff191683800117855562000222565b8280016001018555821562000222579182015b828111156200022257825182559160200191906001019062000205565b506200023092915062000234565b5090565b5b8082111562000230576000815560010162000235565b6118c3806200025b6000396000f3fe608060405234801561001057600080fd5b50600436106100eb5760003560e01c80636b0b36a6116100925780636b0b36a6146102a9578063715018a6146103455780638214b4f01461034d5780638837bd5d146103bb5780638da5cb5b14610460578063ab2f0e5114610468578063f1e4626914610470578063f2fde38b14610478578063fe41c0da1461049e576100eb565b80630ea86ad8146100f05780633f346d4d146101145780634593144c1461016c5780634fb2e45d14610186578063523a0623146101ae57806358975919146101b657806367fac013146102335780636b024330146102a1575b600080fd5b6100f861051b565b604080516001600160a01b039092168252519081900360200190f35b61011c61052a565b60408051602080825283518183015283519192839290830191858101910280838360005b83811015610158578181015183820152602001610140565b505050509050019250505060405180910390f35b610174610582565b60408051918252519081900360200190f35b6101ac6004803603602081101561019c57600080fd5b50356001600160a01b0316610588565b005b61011c6105ec565b6101be610642565b6040805160208082528351818301528351919283929083019185019080838360005b838110156101f85781810151838201526020016101e0565b50505050905090810190601f1680156102255780820380516001836020036101000a031916815260200191505b509250505060405180910390f35b6101ac6004803603604081101561024957600080fd5b810190602081018135600160201b81111561026357600080fd5b82018360208201111561027557600080fd5b803590602001918460018302840111600160201b8311171561029657600080fd5b9193509150356106d0565b6100f8610933565b6102c6600480360360208110156102bf57600080fd5b5035610942565b6040518083815260200180602001828103825283818151815260200191508051906020019080838360005b838110156103095781810151838201526020016102f1565b50505050905090810190601f1680156103365780820380516001836020036101000a031916815260200191505b50935050505060405180910390f35b6101ac610a2e565b6101746004803603602081101561036357600080fd5b810190602081018135600160201b81111561037d57600080fd5b82018360208201111561038f57600080fd5b803590602001918460018302840111600160201b831117156103b057600080fd5b509092509050610ad0565b6103d8600480360360208110156103d157600080fd5b5035610b8a565b60405180848152602001831515815260200180602001828103825283818151815260200191508051906020019080838360005b8381101561042357818101518382015260200161040b565b50505050905090810190601f1680156104505780820380516001836020036101000a031916815260200191505b5094505050505060405180910390f35b6100f8610c75565b610174610c84565b610174610da7565b6101ac6004803603602081101561048e57600080fd5b50356001600160a01b0316610e23565b6101ac600480360360608110156104b457600080fd5b810190602081018135600160201b8111156104ce57600080fd5b8201836020820111156104e057600080fd5b803590602001918460018302840111600160201b8311171561050157600080fd5b9193509150803590602001356001600160a01b0316610f1b565b6002546001600160a01b031681565b6060600980548060200260200160405190810160405280929190818152602001828054801561057857602002820191906000526020600020905b815481526020019060010190808311610564575b5050505050905090565b60045481565b6105906111ca565b6000546001600160a01b039081169116146105e0576040805162461bcd60e51b81526020600482018190526024820152600080516020611844833981519152604482015290519081900360640190fd5b6105e981610e23565b50565b606060078054806020026020016040519081016040528092919081815260200182805480156105785760200282019190600052602060002090815481526020019060010190808311610564575050505050905090565b6005805460408051602060026001851615610100026000190190941693909304601f810184900484028201840190925281815292918301828280156106c85780601f1061069d576101008083540402835291602001916106c8565b820191906000526020600020905b8154815290600101906020018083116106ab57829003601f168201915b505050505081565b6106d86111ca565b6000546001600160a01b03908116911614610728576040805162461bcd60e51b81526020600482018190526024820152600080516020611844833981519152604482015290519081900360640190fd5b6002600154141561076e576040805162461bcd60e51b815260206004820152601f60248201526000805160206117fe833981519152604482015290519081900360640190fd5b6002600181905550600083836040518083838082843760408051919093018190039020600081815260066020529290922054919550501592506107ed915050576040805162461bcd60e51b815260206004820152600f60248201526e4552525f415554485f45584953545360881b604482015290519081900360640190fd5b600081815260066020526040902061080960028201868661172d565b506001808201805460ff191690558382556007805480830182556000919091527fa66cc928b5edb82af9bd49922954155ab7b0942694bea4ce44661d9a8736c688018390556040516005805430939192918291849160029082161561010002600019019091160480156108b35780601f106108915761010080835404028352918201916108b3565b820191906000526020600020905b81548152906001019060200180831161089f575b505091505060405180910390207fded52e9baec1da58e2276748c456d3de1acb844589e794895392b474b8a136e787878760405180806020018381526020018281038252858582818152602001925080828437600083820152604051601f909101601f1916909201829003965090945050505050a3505060018055505050565b6003546001600160a01b031681565b6000606061094e6117ab565b6008600085815260200190815260200160002060405180604001604052908160008201548152602001600182018054600181600116156101000203166002900480601f016020809104026020016040519081016040528092919081815260200182805460018160011615610100020316600290048015610a0f5780601f106109e457610100808354040283529160200191610a0f565b820191906000526020600020905b8154815290600101906020018083116109f257829003601f168201915b5050505050815250509050806000015181602001519250925050915091565b610a366111ca565b6000546001600160a01b03908116911614610a86576040805162461bcd60e51b81526020600482018190526024820152600080516020611844833981519152604482015290519081900360640190fd5b600080546040516001600160a01b03909116907f8be0079c531659141344cd1fd0a4f28419497f9722a3daafe3b4186f6b6457e0908390a3600080546001600160a01b0319169055565b6000610ada6111ca565b6000546001600160a01b03908116911614610b2a576040805162461bcd60e51b81526020600482018190526024820152600080516020611844833981519152604482015290519081900360640190fd5b60026001541415610b70576040805162461bcd60e51b815260206004820152601f60248201526000805160206117fe833981519152604482015290519081900360640190fd5b6002600155610b7f83836111ce565b600180559392505050565b6000806060610b976117c5565b60008581526006602090815260409182902082516060810184528154815260018083015460ff161515828501526002808401805487516101009482161594909402600019011691909104601f81018690048602830186018752808352929593949386019391929091830182828015610c505780601f10610c2557610100808354040283529160200191610c50565b820191906000526020600020905b815481529060010190602001808311610c3357829003601f168201915b5050509190925250508151602083015160409093015190989297509550909350505050565b6000546001600160a01b031690565b600254604080516370a0823160e01b8152306004820152905160009283926001600160a01b03909116916370a0823191602480820192602092909190829003018186803b158015610cd457600080fd5b505afa158015610ce8573d6000803e3d6000fd5b505050506040513d6020811015610cfe57600080fd5b5051600354604080516370a0823160e01b815230600482015290519293506000926001600160a01b03909216916370a0823191602480820192602092909190829003018186803b158015610d5157600080fd5b505afa158015610d65573d6000803e3d6000fd5b505050506040513d6020811015610d7b57600080fd5b505190506000610d896113b6565b9050610d9f81610d9985856113bb565b906113bb565b935050505090565b600354604080516370a0823160e01b815230600482015290516000926001600160a01b0316916370a08231916024808301926020929190829003018186803b158015610df257600080fd5b505afa158015610e06573d6000803e3d6000fd5b505050506040513d6020811015610e1c57600080fd5b5051905090565b610e2b6111ca565b6000546001600160a01b03908116911614610e7b576040805162461bcd60e51b81526020600482018190526024820152600080516020611844833981519152604482015290519081900360640190fd5b6001600160a01b038116610ec05760405162461bcd60e51b815260040180806020018281038252602681526020018061181e6026913960400191505060405180910390fd5b600080546040516001600160a01b03808516939216917f8be0079c531659141344cd1fd0a4f28419497f9722a3daafe3b4186f6b6457e091a3600080546001600160a01b0319166001600160a01b0392909216919091179055565b610f236111ca565b6000546001600160a01b03908116911614610f73576040805162461bcd60e51b81526020600482018190526024820152600080516020611844833981519152604482015290519081900360640190fd5b60026001541415610fb9576040805162461bcd60e51b815260206004820152601f60248201526000805160206117fe833981519152604482015290519081900360640190fd5b60026001819055506000848460405180838380828437604080519190930181900390206000818152600860205292909220549195505015925061103a915050576040805162461bcd60e51b81526020600482015260116024820152704552525f534554544c455f45584953545360781b604482015290519081900360640190fd5b60008181526006602052604090205415801590611069575060008181526006602052604090206001015460ff16155b1561107a5761107885856111ce565b505b6009805460018181019092557f6e1540171b6c0c960b71a7020d9f60077f6af931a8bbf590da0223dacf75c7af018290556000828152600860205260409020906110c7908201878761172d565b508381556002546110e2906001600160a01b03168486611404565b306001600160a01b0316600560405180828054600181600116156101000203166002900480156111495780601f10611127576101008083540402835291820191611149565b820191906000526020600020905b815481529060010190602001808311611135575b505091505060405180910390207f4db0691b564b0128897bbc27abdf9aff03f8a8325f87658085962d90aabdd8fa88888860405180806020018381526020018281038252858582818152602001925080828437600083820152604051601f909101601f1916909201829003965090945050505050a350506001805550505050565b3390565b60006111d86111ca565b6000546001600160a01b03908116911614611228576040805162461bcd60e51b81526020600482018190526024820152600080516020611844833981519152604482015290519081900360640190fd5b60008383604051808383808284376040805191909301819003902060008181526006602052929092208054929650945050151591506112a59050576040805162461bcd60e51b815260206004820152601260248201527111549497d055551217d393d517d1561254d560721b604482015290519081900360640190fd5b6001818101805460ff1916909117905580546003546112d1916001600160a01b03909116903390611404565b306001600160a01b0316600560405180828054600181600116156101000203166002900480156113385780601f10611316576101008083540402835291820191611338565b820191906000526020600020905b815481529060010190602001808311611324575b5050604080519182900382208654602084018190528284529183018a905293507f4235c71bfde7f4d62e8d4d67b17e9ec2cdff2d762b1b15b990c70f3e09b9df9e925089918991908060608101858580828437600083820152604051601f909101601f1916909201829003965090945050505050a354949350505050565b600090565b60006113fd83836040518060400160405280601e81526020017f536166654d6174683a207375627472616374696f6e206f766572666c6f77000081525061145b565b9392505050565b604080516001600160a01b038416602482015260448082018490528251808303909101815260649091019091526020810180516001600160e01b031663a9059cbb60e01b1790526114569084906114f2565b505050565b600081848411156114ea5760405162461bcd60e51b81526004018080602001828103825283818151815260200191508051906020019080838360005b838110156114af578181015183820152602001611497565b50505050905090810190601f1680156114dc5780820380516001836020036101000a031916815260200191505b509250505060405180910390fd5b505050900390565b6060611547826040518060400160405280602081526020017f5361666545524332303a206c6f772d6c6576656c2063616c6c206661696c6564815250856001600160a01b03166115a39092919063ffffffff16565b8051909150156114565780806020019051602081101561156657600080fd5b50516114565760405162461bcd60e51b815260040180806020018281038252602a815260200180611864602a913960400191505060405180910390fd5b60606115b284846000856115ba565b949350505050565b60606115c585611727565b611616576040805162461bcd60e51b815260206004820152601d60248201527f416464726573733a2063616c6c20746f206e6f6e2d636f6e7472616374000000604482015290519081900360640190fd5b60006060866001600160a01b031685876040518082805190602001908083835b602083106116555780518252601f199092019160209182019101611636565b6001836020036101000a03801982511681845116808217855250505050505090500191505060006040518083038185875af1925050503d80600081146116b7576040519150601f19603f3d011682016040523d82523d6000602084013e6116bc565b606091505b509150915081156116d05791506115b29050565b8051156116e05780518082602001fd5b60405162461bcd60e51b81526020600482018181528651602484015286518793919283926044019190850190808383600083156114af578181015183820152602001611497565b3b151590565b828054600181600116156101000203166002900490600052602060002090601f016020900481019282601f1061176e5782800160ff1982351617855561179b565b8280016001018555821561179b579182015b8281111561179b578235825591602001919060010190611780565b506117a79291506117e8565b5090565b604051806040016040528060008152602001606081525090565b604051806060016040528060008152602001600015158152602001606081525090565b5b808211156117a757600081556001016117e956fe5265656e7472616e637947756172643a207265656e7472616e742063616c6c004f776e61626c653a206e6577206f776e657220697320746865207a65726f20616464726573734f776e61626c653a2063616c6c6572206973206e6f7420746865206f776e65725361666545524332303a204552433230206f7065726174696f6e20646964206e6f742073756363656564a2646970667358221220988794795d625e4b1c09fbbfc3caae0c1543bdb78cfd1b011c96d591a30e6ae564736f6c634300060c0033",
  "immutableReferences": {},
  "source": "// SPDX-License-Identifier: MIT\npragma solidity 0.6.12;\n\nimport \"./IUBIBeneficiary.sol\";\nimport \"@openzeppelin/contracts/access/Ownable.sol\";\nimport \"@openzeppelin/contracts/utils/ReentrancyGuard.sol\";\nimport \"@openzeppelin/contracts/math/SafeMath.sol\";\nimport \"@openzeppelin/contracts/token/ERC20/SafeERC20.sol\";\nimport \"@openzeppelin/contracts/presets/ERC20PresetMinterPauser.sol\";\n\n/**\n * @title Implementation of Celo UBI beneficiary contract\n *\n * @dev A simple wallet contract to hold specific ERC20 tokens that is controlled by an owner\n *\n * @author Aaron Boyd <https://github.com/aaronmboyd>\n */\ncontract UBIBeneficiary is IUBIBeneficiary, Ownable, ReentrancyGuard {\n    using SafeMath for uint256;\n    using SafeERC20 for IERC20;\n    using SafeERC20 for ERC20PresetMinterPauser;\n\n    IERC20 public cUSDToken;\n    ERC20PresetMinterPauser public cUBIAuthToken;\n    uint256 public createdBlock;\n    string public userId;\n\n    struct Authorization {\n        uint256 value;\n        bool deauthorized;\n        string txId;\n    }\n    mapping(bytes32 => Authorization) private authorizations;\n    bytes32[] private authorizationKeys;\n\n    struct Settlement {\n        uint256 value;\n        string txId;\n    }\n    mapping(bytes32 => Settlement) private settlements;\n    bytes32[] private settlementKeys;\n\n    /**\n     * @notice used to initialize a new UBIBeneficiary contract\n     *\n     * @param _cUSDToken token used for cUSD\n     * @param _cUBIAuthToken token used for cUSD authorizations\n     */\n    constructor(\n        IERC20 _cUSDToken,\n        ERC20PresetMinterPauser _cUBIAuthToken,\n        string memory _userId\n    ) public {\n        cUSDToken = _cUSDToken;\n        cUBIAuthToken = _cUBIAuthToken;\n        createdBlock = block.number;\n        userId = _userId;\n    }\n\n    /**\n     * @notice Return array of settlementKeys\n     *\n     * @dev Note this is marked external, you cannot return dynamically sized data target is a Web3 caller for iterating Settlements\n     *\n     */\n    function getSettlementKeys() external view override returns (bytes32[] memory) {\n        return settlementKeys;\n    }\n\n    /**\n     * @notice Return array of authorizationsKeys\n     *\n     * @dev Note this is marked external, you cannot return dynamically sized data target is a Web3 caller for iterating Authorizations\n     *\n     */\n    function getAuthorizationKeys() external view override returns (bytes32[] memory) {\n        return authorizationKeys;\n    }\n\n    /**\n     * @notice Return the primitive attributes of an Authorization struct\n     *\n     * @param _key Map key of the Authorization to return\n     *\n     */\n    function getAuthorizationAtKey(bytes32 _key)\n        external\n        view\n        override\n        returns (\n            uint256,\n            bool,\n            string memory\n        )\n    {\n        Authorization memory auth = authorizations[_key];\n        return (auth.value, auth.deauthorized, auth.txId);\n    }\n\n    /**\n     * @notice Return the primitive attributes of an Settlement struct\n     *\n     * @param _key Map key of the Settlement to return\n     *\n     */\n    function getSettlementAtKey(bytes32 _key)\n        external\n        view\n        override\n        returns (uint256, string memory)\n    {\n        Settlement memory settle = settlements[_key];\n        return (settle.value, settle.txId);\n    }\n\n    /**\n     * @notice Calculate demurrage\n     *\n     * @dev Currently implemented as \"return 0\", later will calculated using block.number - createdBlock\n     */\n    function _calculateDemurrage() internal pure returns (uint256) {\n        return 0;\n    }\n\n    /**\n     * @notice retrieve available balance for this contract\n     *\n     * @return uint256 usable balance for this contract\n     */\n    function availableBalance() external view override returns (uint256) {\n        uint256 cUSDBalance = cUSDToken.balanceOf(address(this));\n        uint256 cAuthBalance = cUBIAuthToken.balanceOf(address(this));\n        uint256 demurrage = _calculateDemurrage();\n\n        return cUSDBalance.sub(cAuthBalance).sub(demurrage);\n    }\n\n    /**\n     * @notice retrieve authorization balance for this contract\n     *\n     * @return uint256 authorization balance for this contract\n     */\n    function authorizationBalance() external view override returns (uint256) {\n        return cUBIAuthToken.balanceOf(address(this));\n    }\n\n    /**\n     * @notice Implementation of deauthorization by deleting stored authorzation record and returning cUBIAUTH token to the main contract\n     *\n     * @param _txId Dynamic string txId of the transaction to de-authorize\n     *\n     * @dev We don't need to specify the transaction size here because it is stored in the Authorization struct\n     *\n     */\n    function _deauthorize(string calldata _txId) private onlyOwner returns (uint256) {\n        bytes32 key = keccak256(bytes(_txId));\n        Authorization storage toDeauthorize = authorizations[key];\n        require(toDeauthorize.value > 0, \"ERR_AUTH_NOT_EXIST\");\n        toDeauthorize.deauthorized = true;\n        cUBIAuthToken.safeTransfer(msg.sender, toDeauthorize.value);\n        emit DeauthorizationEvent(\n            keccak256(bytes(userId)),\n            address(this),\n            _txId,\n            toDeauthorize.value\n        );\n        return toDeauthorize.value;\n    }\n\n    /**\n     * @notice External method deauthorization\n     *\n     * @param _txId Dynamic string txId of the transaction to de-authorize\n     *\n     * @dev We don't need to specify the transaction size here because it is stored in the Authorization struct\n     *\n     */\n    function deauthorize(string calldata _txId)\n        external\n        override\n        onlyOwner\n        nonReentrant\n        returns (uint256)\n    {\n        return _deauthorize(_txId);\n    }\n\n    /**\n     * @notice Store a new authorization \n\n     * @param _txId Dynamic string txId of the transaction to authorize\n     * @param _value uint256 transaction amount\n     *\n     *\n    */\n    function authorize(string calldata _txId, uint256 _value)\n        external\n        override\n        onlyOwner\n        nonReentrant\n    {\n        bytes32 key = keccak256(bytes(_txId));\n        require(authorizations[key].value == 0, \"ERR_AUTH_EXISTS\");\n\n        Authorization storage newAuth = authorizations[key];\n        newAuth.txId = _txId;\n        newAuth.deauthorized = false;\n        newAuth.value = _value;\n        authorizationKeys.push(key);\n\n        emit AuthorizationEvent(keccak256(bytes(userId)), address(this), _txId, _value);\n    }\n\n    /**\n     * @notice Perform a settlement by returning cUSD token to the reconciliation contract\n     *\n     * @param _txId Dynamic string txId of the transaction to authorize\n     * @param _value uint256 transaction amount\n     * @param _reconciliationAccount Reconciliation account to send the cUSD to during settlement\n     *\n     * @dev If there was an existing authorization for this txId, de-authorize it, for the original authorization amount, regardless of the current settlement amount\n     *\n     */\n    function settle(\n        string calldata _txId,\n        uint256 _value,\n        address _reconciliationAccount\n    ) external override onlyOwner nonReentrant {\n        bytes32 key = keccak256(bytes(_txId));\n        require(settlements[key].value == 0, \"ERR_SETTLE_EXISTS\");\n\n        // Attempt deauthorization of this transaction if it has been pre-authorized first\n        if ((authorizations[key].value > 0) && (authorizations[key].deauthorized == false)) {\n            _deauthorize(_txId);\n        }\n\n        // Then peform settlement\n        settlementKeys.push(key);\n        Settlement storage newSettle = settlements[key];\n        newSettle.txId = _txId;\n        newSettle.value = _value;\n        cUSDToken.safeTransfer(_reconciliationAccount, _value);\n\n        emit SettlementEvent(keccak256(bytes(userId)), address(this), _txId, _value);\n    }\n\n    /**\n     * @notice Transfer ownership of the UBIBeneficiary\n     *\n     * @param newOwner New owner address\n     *\n     * @dev Adding transferOwner to facade implementation of UBIBeneficiary.transferOwnership from an interface object\n     *\n     */\n    function transferOwner(address newOwner) external override onlyOwner {\n        super.transferOwnership(newOwner);\n    }\n}\n",
  "sourcePath": "/home/boyd/git/keyko/celo-ubi-contract/contracts/UBIBeneficiary.sol",
  "compiler": {
    "name": "solc",
    "version": "0.6.12+commit.27d51765.Emscripten.clang"
  },
  "schemaVersion": "3.3.2",
  "updatedAt": "2020-12-28T15:12:58.095Z",
  "devdoc": {
    "author": "Aaron Boyd <https://github.com/aaronmboyd>",
    "details": "A simple wallet contract to hold specific ERC20 tokens that is controlled by an owner",
    "kind": "dev",
    "methods": {
      "authorizationBalance()": {
        "returns": {
          "_0": "uint256 authorization balance for this contract"
        }
      },
      "authorize(string,uint256)": {
        "params": {
          "_txId": "Dynamic string txId of the transaction to authorize",
          "_value": "uint256 transaction amount"
        }
      },
      "availableBalance()": {
        "returns": {
          "_0": "uint256 usable balance for this contract"
        }
      },
      "constructor": {
        "params": {
          "_cUBIAuthToken": "token used for cUSD authorizations",
          "_cUSDToken": "token used for cUSD"
        }
      },
      "deauthorize(string)": {
        "details": "We don't need to specify the transaction size here because it is stored in the Authorization struct",
        "params": {
          "_txId": "Dynamic string txId of the transaction to de-authorize"
        }
      },
      "getAuthorizationAtKey(bytes32)": {
        "params": {
          "_key": "Map key of the Authorization to return"
        }
      },
      "getAuthorizationKeys()": {
        "details": "Note this is marked external, you cannot return dynamically sized data target is a Web3 caller for iterating Authorizations"
      },
      "getSettlementAtKey(bytes32)": {
        "params": {
          "_key": "Map key of the Settlement to return"
        }
      },
      "getSettlementKeys()": {
        "details": "Note this is marked external, you cannot return dynamically sized data target is a Web3 caller for iterating Settlements"
      },
      "owner()": {
        "details": "Returns the address of the current owner."
      },
      "renounceOwnership()": {
        "details": "Leaves the contract without owner. It will not be possible to call `onlyOwner` functions anymore. Can only be called by the current owner. NOTE: Renouncing ownership will leave the contract without an owner, thereby removing any functionality that is only available to the owner."
      },
      "settle(string,uint256,address)": {
        "details": "If there was an existing authorization for this txId, de-authorize it, for the original authorization amount, regardless of the current settlement amount",
        "params": {
          "_reconciliationAccount": "Reconciliation account to send the cUSD to during settlement",
          "_txId": "Dynamic string txId of the transaction to authorize",
          "_value": "uint256 transaction amount"
        }
      },
      "transferOwner(address)": {
        "details": "Adding transferOwner to facade implementation of UBIBeneficiary.transferOwnership from an interface object",
        "params": {
          "newOwner": "New owner address"
        }
      },
      "transferOwnership(address)": {
        "details": "Transfers ownership of the contract to a new account (`newOwner`). Can only be called by the current owner."
      }
    },
    "title": "Implementation of Celo UBI beneficiary contract",
    "version": 1
  },
  "userdoc": {
    "events": {
      "AuthorizationEvent(bytes32,address,string,uint256)": {
        "notice": "Triggered when an amount has been pre-authorized for a user"
      },
      "DeauthorizationEvent(bytes32,address,string,uint256)": {
        "notice": "Triggered when an amount has been de-authorized for a user"
      },
      "SettlementEvent(bytes32,address,string,uint256)": {
        "notice": "Triggered when an amount has been settled for a user"
      }
    },
    "kind": "user",
    "methods": {
      "authorizationBalance()": {
        "notice": "retrieve authorization balance for this contract"
      },
      "authorize(string,uint256)": {
        "notice": "Store a new authorization "
      },
      "availableBalance()": {
        "notice": "retrieve available balance for this contract"
      },
      "constructor": "used to initialize a new UBIBeneficiary contract",
      "deauthorize(string)": {
        "notice": "External method deauthorization"
      },
      "getAuthorizationAtKey(bytes32)": {
        "notice": "Return the primitive attributes of an Authorization struct"
      },
      "getAuthorizationKeys()": {
        "notice": "Return array of authorizationsKeys"
      },
      "getSettlementAtKey(bytes32)": {
        "notice": "Return the primitive attributes of an Settlement struct"
      },
      "getSettlementKeys()": {
        "notice": "Return array of settlementKeys"
      },
      "settle(string,uint256,address)": {
        "notice": "Perform a settlement by returning cUSD token to the reconciliation contract"
      },
      "transferOwner(address)": {
        "notice": "Transfer ownership of the UBIBeneficiary"
      }
    },
    "version": 1
  }
}