{
  "contractName": "UBIController",
  "abi": [
    {
      "inputs": [
        {
          "internalType": "contract IERC20",
          "name": "_cUSDToken",
          "type": "address"
        },
        {
          "internalType": "address",
          "name": "_custodian",
          "type": "address"
        },
        {
          "internalType": "address",
          "name": "_ubiBeneficiaryFactory",
          "type": "address"
        }
      ],
      "stateMutability": "nonpayable",
      "type": "constructor"
    },
    {
      "anonymous": false,
      "inputs": [
        {
          "indexed": true,
          "internalType": "uint256",
          "name": "_disbursementWei",
          "type": "uint256"
        }
      ],
      "name": "DisbursementUpdated",
      "type": "event"
    },
    {
      "anonymous": false,
      "inputs": [
        {
          "indexed": true,
          "internalType": "address",
          "name": "_oldFactoryAddress",
          "type": "address"
        },
        {
          "indexed": true,
          "internalType": "address",
          "name": "_newFactoryAddress",
          "type": "address"
        }
      ],
      "name": "FactoryUpdated",
      "type": "event"
    },
    {
      "anonymous": false,
      "inputs": [
        {
          "indexed": true,
          "internalType": "bytes32",
          "name": "_userId",
          "type": "bytes32"
        },
        {
          "indexed": true,
          "internalType": "address",
          "name": "_ubiAddress",
          "type": "address"
        }
      ],
      "name": "NewUser",
      "type": "event"
    },
    {
      "anonymous": false,
      "inputs": [
        {
          "indexed": true,
          "internalType": "address",
          "name": "previousOwner",
          "type": "address"
        },
        {
          "indexed": true,
          "internalType": "address",
          "name": "newOwner",
          "type": "address"
        }
      ],
      "name": "OwnershipTransferred",
      "type": "event"
    },
    {
      "anonymous": false,
      "inputs": [
        {
          "indexed": false,
          "internalType": "address",
          "name": "account",
          "type": "address"
        }
      ],
      "name": "Paused",
      "type": "event"
    },
    {
      "anonymous": false,
      "inputs": [
        {
          "indexed": false,
          "internalType": "address",
          "name": "account",
          "type": "address"
        }
      ],
      "name": "Unpaused",
      "type": "event"
    },
    {
      "inputs": [],
      "name": "cUBIAuthToken",
      "outputs": [
        {
          "internalType": "contract ERC20PresetMinterPauser",
          "name": "",
          "type": "address"
        }
      ],
      "stateMutability": "view",
      "type": "function"
    },
    {
      "inputs": [],
      "name": "cUSDToken",
      "outputs": [
        {
          "internalType": "contract IERC20",
          "name": "",
          "type": "address"
        }
      ],
      "stateMutability": "view",
      "type": "function"
    },
    {
      "inputs": [],
      "name": "disbursementWei",
      "outputs": [
        {
          "internalType": "uint256",
          "name": "",
          "type": "uint256"
        }
      ],
      "stateMutability": "view",
      "type": "function"
    },
    {
      "inputs": [],
      "name": "owner",
      "outputs": [
        {
          "internalType": "address",
          "name": "",
          "type": "address"
        }
      ],
      "stateMutability": "view",
      "type": "function"
    },
    {
      "inputs": [],
      "name": "paused",
      "outputs": [
        {
          "internalType": "bool",
          "name": "",
          "type": "bool"
        }
      ],
      "stateMutability": "view",
      "type": "function"
    },
    {
      "inputs": [],
      "name": "reconciliationAccount",
      "outputs": [
        {
          "internalType": "contract IUBIReconciliationAccount",
          "name": "",
          "type": "address"
        }
      ],
      "stateMutability": "view",
      "type": "function"
    },
    {
      "inputs": [],
      "name": "renounceOwnership",
      "outputs": [],
      "stateMutability": "nonpayable",
      "type": "function"
    },
    {
      "inputs": [],
      "name": "ubiBeneficiaryFactory",
      "outputs": [
        {
          "internalType": "contract IUBIBeneficiaryFactory",
          "name": "",
          "type": "address"
        }
      ],
      "stateMutability": "view",
      "type": "function"
    },
    {
      "inputs": [
        {
          "internalType": "uint256",
          "name": "_newDisbursementWei",
          "type": "uint256"
        }
      ],
      "name": "setDisbursementWei",
      "outputs": [],
      "stateMutability": "nonpayable",
      "type": "function"
    },
    {
      "inputs": [
        {
          "internalType": "address",
          "name": "_newFactoryAddress",
          "type": "address"
        }
      ],
      "name": "setUBIBeneficiaryFactory",
      "outputs": [],
      "stateMutability": "nonpayable",
      "type": "function"
    },
    {
      "inputs": [
        {
          "internalType": "address",
          "name": "_custodian",
          "type": "address"
        }
      ],
      "name": "setCustodian",
      "outputs": [],
      "stateMutability": "nonpayable",
      "type": "function"
    },
    {
      "inputs": [
        {
          "internalType": "bytes32",
          "name": "_userId",
          "type": "bytes32"
        }
      ],
      "name": "balanceOfUBIBeneficiary",
      "outputs": [
        {
          "internalType": "uint256",
          "name": "",
          "type": "uint256"
        }
      ],
      "stateMutability": "view",
      "type": "function"
    },
    {
      "inputs": [
        {
          "internalType": "bytes32",
          "name": "_userId",
          "type": "bytes32"
        }
      ],
      "name": "authBalanceOfUBIBeneficiary",
      "outputs": [
        {
          "internalType": "uint256",
          "name": "",
          "type": "uint256"
        }
      ],
      "stateMutability": "view",
      "type": "function"
    },
    {
      "inputs": [
        {
          "internalType": "bytes32",
          "name": "_userId",
          "type": "bytes32"
        },
        {
          "internalType": "string",
          "name": "_txId",
          "type": "string"
        },
        {
          "internalType": "uint256",
          "name": "_value",
          "type": "uint256"
        }
      ],
      "name": "authorize",
      "outputs": [],
      "stateMutability": "nonpayable",
      "type": "function"
    },
    {
      "inputs": [
        {
          "internalType": "bytes32",
          "name": "_userId",
          "type": "bytes32"
        },
        {
          "internalType": "string",
          "name": "_txId",
          "type": "string"
        }
      ],
      "name": "deauthorize",
      "outputs": [],
      "stateMutability": "nonpayable",
      "type": "function"
    },
    {
      "inputs": [
        {
          "internalType": "bytes32",
          "name": "_userId",
          "type": "bytes32"
        },
        {
          "internalType": "string",
          "name": "_txId",
          "type": "string"
        },
        {
          "internalType": "uint256",
          "name": "_value",
          "type": "uint256"
        }
      ],
      "name": "settle",
      "outputs": [],
      "stateMutability": "nonpayable",
      "type": "function"
    },
    {
      "inputs": [],
      "name": "reconcile",
      "outputs": [],
      "stateMutability": "nonpayable",
      "type": "function"
    },
    {
      "inputs": [
        {
          "internalType": "string",
          "name": "_userId",
          "type": "string"
        }
      ],
      "name": "newUbiBeneficiary",
      "outputs": [],
      "stateMutability": "nonpayable",
      "type": "function"
    },
    {
      "inputs": [
        {
          "internalType": "bytes32",
          "name": "_userId",
          "type": "bytes32"
        }
      ],
      "name": "beneficiaryAddress",
      "outputs": [
        {
          "internalType": "address",
          "name": "",
          "type": "address"
        }
      ],
      "stateMutability": "view",
      "type": "function"
    },
    {
      "inputs": [
        {
          "internalType": "address",
          "name": "newOwner",
          "type": "address"
        }
      ],
      "name": "transferOwnership",
      "outputs": [],
      "stateMutability": "nonpayable",
      "type": "function"
    },
    {
      "inputs": [],
      "name": "pause",
      "outputs": [],
      "stateMutability": "nonpayable",
      "type": "function"
    },
    {
      "inputs": [],
      "name": "unpause",
      "outputs": [],
      "stateMutability": "nonpayable",
      "type": "function"
    },
    {
      "inputs": [],
      "name": "withdrawToCustodian",
      "outputs": [],
      "stateMutability": "nonpayable",
      "type": "function"
    },
    {
      "inputs": [
        {
          "internalType": "uint256",
          "name": "_index",
          "type": "uint256"
        }
      ],
      "name": "getBeneficiaryAddressAtIndex",
      "outputs": [
        {
          "internalType": "address",
          "name": "",
          "type": "address"
        }
      ],
      "stateMutability": "view",
      "type": "function"
    },
    {
      "inputs": [],
      "name": "getBeneficiaryCount",
      "outputs": [
        {
          "internalType": "uint256",
          "name": "",
          "type": "uint256"
        }
      ],
      "stateMutability": "view",
      "type": "function"
    }
  ],
  "bytecode": "0x608060405268056bc75e2d631000006005553480156200001e57600080fd5b5060405162003ebe38038062003ebe833981810160405260608110156200004457600080fd5b508051602082015160409092015190919060006200006162000240565b600080546001600160a01b0319166001600160a01b0383169081178255604051929350917f8be0079c531659141344cd1fd0a4f28419497f9722a3daafe3b4186f6b6457e0908290a3506000805460ff60a01b1916905560018055600280546001600160a01b0319166001600160a01b038516179055604051620000e590620002a0565b6040808252601c818301527f43656c6f2055424920417574686f72697a6174696f6e20546f6b656e000000006060830152608060208301819052600890830152670c6aa849282aaa8960c31b60a0830152519081900360c001906000f08015801562000155573d6000803e3d6000fd5b50600380546001600160a01b0319166001600160a01b0392909216919091179055620001818162000244565b60048054600354604080516324be795d60e11b81526001600160a01b038881169582019590955291841660248301528584166044830152516000939092169163497cf2ba9160648082019260209290919082900301818787803b158015620001e857600080fd5b505af1158015620001fd573d6000803e3d6000fd5b505050506040513d60208110156200021457600080fd5b5051600880546001600160a01b0319166001600160a01b0390921691909117905550620002ae92505050565b3390565b6004546040516001600160a01b038084169216907f333c7678baf16017cf31e1d2f90143a62aab01a67a0807f6836a4304ceabb55590600090a3600480546001600160a01b0319166001600160a01b0392909216919091179055565b611c76806200224883390190565b611f8a80620002be6000396000f3fe608060405234801561001057600080fd5b50600436106101635760003560e01c80636bb3130e116100ce5780639a6e7fd1116100875780639a6e7fd114610388578063b8e2705914610390578063ba325b3d146103b6578063c63c249614610424578063c6fb17a11461042c578063f2fde38b14610449578063f8713c951461046f57610163565b80636bb3130e14610343578063715018a61461034b5780638456cb59146103535780638da5cb5b1461035b5780638f0d7e3514610363578063953bdf3d1461036b57610163565b80634d89a08a116101205780634d89a08a146102685780635a59f630146102855780635ba9bd72146102a25780635c975abb14610317578063685b4157146103335780636b0243301461033b57610163565b80630a3f3fa6146101685780630ea86ad81461018c5780631b633c53146101945780633addc4e01461020b5780633f4ba83a1461023a578063403f373114610242575b600080fd5b6101706104e4565b604080516001600160a01b039092168252519081900360200190f35b6101706104f3565b610209600480360360608110156101aa57600080fd5b81359190810190604081016020820135600160201b8111156101cb57600080fd5b8201836020820111156101dd57600080fd5b803590602001918460018302840111600160201b831117156101fe57600080fd5b919350915035610502565b005b6102286004803603602081101561022157600080fd5b50356107af565b60408051918252519081900360200190f35b610209610831565b6102096004803603602081101561025857600080fd5b50356001600160a01b03166108e2565b6102286004803603602081101561027e57600080fd5b50356109a3565b6101706004803603602081101561029b57600080fd5b50356109f1565b610209600480360360408110156102b857600080fd5b81359190810190604081016020820135600160201b8111156102d957600080fd5b8201836020820111156102eb57600080fd5b803590602001918460018302840111600160201b8311171561030c57600080fd5b509092509050610a07565b61031f610b10565b604080519115158252519081900360200190f35b610209610b20565b610170610d92565b610228610da1565b610209610da7565b610209610e49565b610170610ef4565b610209610f03565b6101706004803603602081101561038157600080fd5b503561105c565b61022861109c565b610209600480360360208110156103a657600080fd5b50356001600160a01b03166110ad565b610209600480360360208110156103cc57600080fd5b810190602081018135600160201b8111156103e657600080fd5b8201836020820111156103f857600080fd5b803590602001918460018302840111600160201b8311171561041957600080fd5b509092509050611111565b610170611437565b6102096004803603602081101561044257600080fd5b5035611446565b6102096004803603602081101561045f57600080fd5b50356001600160a01b03166114d1565b6102096004803603606081101561048557600080fd5b81359190810190604081016020820135600160201b8111156104a657600080fd5b8201836020820111156104b857600080fd5b803590602001918460018302840111600160201b831117156104d957600080fd5b919350915035611634565b6008546001600160a01b031681565b6002546001600160a01b031681565b8060008111610549576040805162461bcd60e51b815260206004820152600e60248201526d4552525f5a45524f5f56414c554560901b604482015290519081900360640190fd5b848280610555836107af565b1015610599576040805162461bcd60e51b815260206004820152600e60248201526d4552525f4e4f5f42414c414e434560901b604482015290519081900360640190fd5b6105a16117d9565b6000546001600160a01b039081169116146105f1576040805162461bcd60e51b81526020600482018190526024820152600080516020611f35833981519152604482015290519081900360640190fd5b60026001541415610637576040805162461bcd60e51b815260206004820152601f6024820152600080516020611ecd833981519152604482015290519081900360640190fd5b6002600155600054600160a01b900460ff161561068e576040805162461bcd60e51b815260206004820152601060248201526f14185d5cd8589b194e881c185d5cd95960821b604482015290519081900360640190fd5b600061069b6006896117dd565b600354604080516340c10f1960e01b81526001600160a01b038085166004830152602482018a905291519394509116916340c10f199160448082019260009290919082900301818387803b1580156106f257600080fd5b505af1158015610706573d6000803e3d6000fd5b5050604080516367fac01360e01b81526024810189905260048101918252604481018a90528493506001600160a01b03841692506367fac013918b918b918b918190606401858580828437600081840152601f19601f820116905080830192505050945050505050600060405180830381600087803b15801561078857600080fd5b505af115801561079c573d6000803e3d6000fd5b5050600180555050505050505050505050565b6000806107bd6006846117dd565b90506000819050806001600160a01b031663ab2f0e516040518163ffffffff1660e01b815260040160206040518083038186803b1580156107fd57600080fd5b505afa158015610811573d6000803e3d6000fd5b505050506040513d602081101561082757600080fd5b5051949350505050565b6108396117d9565b6000546001600160a01b03908116911614610889576040805162461bcd60e51b81526020600482018190526024820152600080516020611f35833981519152604482015290519081900360640190fd5b600260015414156108cf576040805162461bcd60e51b815260206004820152601f6024820152600080516020611ecd833981519152604482015290519081900360640190fd5b60026001556108dc6117f0565b60018055565b6108ea6117d9565b6000546001600160a01b0390811691161461093a576040805162461bcd60e51b81526020600482018190526024820152600080516020611f35833981519152604482015290519081900360640190fd5b6008546040805163403f373160e01b81526001600160a01b0384811660048301529151919092169163403f373191602480830192600092919082900301818387803b15801561098857600080fd5b505af115801561099c573d6000803e3d6000fd5b5050505050565b6000806109b16006846117dd565b90506000819050806001600160a01b031663f1e462696040518163ffffffff1660e01b815260040160206040518083038186803b1580156107fd57600080fd5b6000806109ff600684611898565b949350505050565b610a0f6117d9565b6000546001600160a01b03908116911614610a5f576040805162461bcd60e51b81526020600482018190526024820152600080516020611f35833981519152604482015290519081900360640190fd5b60026001541415610aa5576040805162461bcd60e51b815260206004820152601f6024820152600080516020611ecd833981519152604482015290519081900360640190fd5b6002600155600054600160a01b900460ff1615610afc576040805162461bcd60e51b815260206004820152601060248201526f14185d5cd8589b194e881c185d5cd95960821b604482015290519081900360640190fd5b610b078383836118b4565b50506001805550565b600054600160a01b900460ff1690565b610b286117d9565b6000546001600160a01b03908116911614610b78576040805162461bcd60e51b81526020600482018190526024820152600080516020611f35833981519152604482015290519081900360640190fd5b600054600160a01b900460ff16610bcd576040805162461bcd60e51b815260206004820152601460248201527314185d5cd8589b194e881b9bdd081c185d5cd95960621b604482015290519081900360640190fd5b60026001541415610c13576040805162461bcd60e51b815260206004820152601f6024820152600080516020611ecd833981519152604482015290519081900360640190fd5b6002600181905554604080516370a0823160e01b815230600482015290516000926001600160a01b0316916370a08231916024808301926020929190829003018186803b158015610c6357600080fd5b505afa158015610c77573d6000803e3d6000fd5b505050506040513d6020811015610c8d57600080fd5b50516008546040805163c561d4b760e01b815290519293506000926001600160a01b039092169163c561d4b791600480820192602092909190829003018186803b158015610cda57600080fd5b505afa158015610cee573d6000803e3d6000fd5b505050506040513d6020811015610d0457600080fd5b50516002546040805163a9059cbb60e01b81526001600160a01b03808516600483015260248201879052915193945091169163a9059cbb916044808201926020929091908290030181600087803b158015610d5e57600080fd5b505af1158015610d72573d6000803e3d6000fd5b505050506040513d6020811015610d8857600080fd5b5050600180555050565b6003546001600160a01b031681565b60055481565b610daf6117d9565b6000546001600160a01b03908116911614610dff576040805162461bcd60e51b81526020600482018190526024820152600080516020611f35833981519152604482015290519081900360640190fd5b600080546040516001600160a01b03909116907f8be0079c531659141344cd1fd0a4f28419497f9722a3daafe3b4186f6b6457e0908390a3600080546001600160a01b0319169055565b610e516117d9565b6000546001600160a01b03908116911614610ea1576040805162461bcd60e51b81526020600482018190526024820152600080516020611f35833981519152604482015290519081900360640190fd5b60026001541415610ee7576040805162461bcd60e51b815260206004820152601f6024820152600080516020611ecd833981519152604482015290519081900360640190fd5b60026001556108dc6119d8565b6000546001600160a01b031690565b610f0b6117d9565b6000546001600160a01b03908116911614610f5b576040805162461bcd60e51b81526020600482018190526024820152600080516020611f35833981519152604482015290519081900360640190fd5b60026001541415610fa1576040805162461bcd60e51b815260206004820152601f6024820152600080516020611ecd833981519152604482015290519081900360640190fd5b6002600155600054600160a01b900460ff1615610ff8576040805162461bcd60e51b815260206004820152601060248201526f14185d5cd8589b194e881c185d5cd95960821b604482015290519081900360640190fd5b600860009054906101000a90046001600160a01b03166001600160a01b0316638f0d7e356040518163ffffffff1660e01b8152600401600060405180830381600087803b15801561104857600080fd5b505af1158015610d88573d6000803e3d6000fd5b60408051808201909152601281527111549497d554d15497d393d517d1561254d560721b6020820152600090611096906006908490611a66565b92915050565b60006110a86006611a73565b905090565b6110b56117d9565b6000546001600160a01b03908116911614611105576040805162461bcd60e51b81526020600482018190526024820152600080516020611f35833981519152604482015290519081900360640190fd5b61110e81611a7e565b50565b6111196117d9565b6000546001600160a01b03908116911614611169576040805162461bcd60e51b81526020600482018190526024820152600080516020611f35833981519152604482015290519081900360640190fd5b600260015414156111af576040805162461bcd60e51b815260206004820152601f6024820152600080516020611ecd833981519152604482015290519081900360640190fd5b6002600155600054600160a01b900460ff1615611206576040805162461bcd60e51b815260206004820152601060248201526f14185d5cd8589b194e881c185d5cd95960821b604482015290519081900360640190fd5b81816040518083838082843760405192018290039091209350611230925060069150839050611ada565b15611274576040805162461bcd60e51b815260206004820152600f60248201526e4552525f555345525f45584953545360881b604482015290519081900360640190fd5b60048054600254600354604051639df137b960e01b81526001600160a01b0392831694810185815291831660248201819052606060448301908152606483018990526000969490951694639df137b9949391928a928a929091608401848480828437600081840152601f19601f82011690508083019250505095505050505050602060405180830381600087803b15801561130e57600080fd5b505af1158015611322573d6000803e3d6000fd5b505050506040513d602081101561133857600080fd5b505160405190915060009085908590808383808284376040519201829003909120945061136f935060069250849150859050611ae6565b506002546005546040805163a9059cbb60e01b81526001600160a01b03868116600483015260248201939093529051919092169163a9059cbb9160448083019260209291908290030181600087803b1580156113ca57600080fd5b505af11580156113de573d6000803e3d6000fd5b505050506040513d60208110156113f457600080fd5b50506040516001600160a01b0383169082907f5fde7be6fd256edbbe1d991a982527a20d550875499314500d2e12fd1be2e83690600090a3505060018055505050565b6004546001600160a01b031681565b61144e6117d9565b6000546001600160a01b0390811691161461149e576040805162461bcd60e51b81526020600482018190526024820152600080516020611f35833981519152604482015290519081900360640190fd5b600581905560405181907ffcd679f840f581cf9cd88a11ed3203bbf677d301b56dbdca72a855ac9674671d90600090a250565b6114d96117d9565b6000546001600160a01b03908116911614611529576040805162461bcd60e51b81526020600482018190526024820152600080516020611f35833981519152604482015290519081900360640190fd5b60005b6115366006611a73565b8110156115c157600061154a600683611898565b60408051634fb2e45d60e01b81526001600160a01b038781166004830152915192945084935090831691634fb2e45d9160248082019260009290919082900301818387803b15801561159b57600080fd5b505af11580156115af573d6000803e3d6000fd5b50506001909401935061152c92505050565b60085460408051634fb2e45d60e01b81526001600160a01b03858116600483015291519190921691634fb2e45d91602480830192600092919082900301818387803b15801561160f57600080fd5b505af1158015611623573d6000803e3d6000fd5b5050505061163082611afc565b5050565b806000811161167b576040805162461bcd60e51b815260206004820152600e60248201526d4552525f5a45524f5f56414c554560901b604482015290519081900360640190fd5b848280611687836107af565b10156116cb576040805162461bcd60e51b815260206004820152600e60248201526d4552525f4e4f5f42414c414e434560901b604482015290519081900360640190fd5b6116d36117d9565b6000546001600160a01b03908116911614611723576040805162461bcd60e51b81526020600482018190526024820152600080516020611f35833981519152604482015290519081900360640190fd5b60026001541415611769576040805162461bcd60e51b815260206004820152601f6024820152600080516020611ecd833981519152604482015290519081900360640190fd5b6002600155600054600160a01b900460ff16156117c0576040805162461bcd60e51b815260206004820152601060248201526f14185d5cd8589b194e881c185d5cd95960821b604482015290519081900360640190fd5b6117cc87878787611bf4565b5050600180555050505050565b3390565b60006117e98383611c92565b9392505050565b600054600160a01b900460ff16611845576040805162461bcd60e51b815260206004820152601460248201527314185d5cd8589b194e881b9bdd081c185d5cd95960621b604482015290519081900360640190fd5b6000805460ff60a01b191690557f5db9ee0a495bf2e6ff9c91a7834c1ba4fdd244a5e8aa4e537bd38aeae4b073aa61187b6117d9565b604080516001600160a01b039092168252519081900360200190a1565b60008080806118a78686611cd4565b9097909650945050505050565b60006118c16006856117dd565b6040516308214b4f60e41b81526020600482019081526024820185905291925082916000916001600160a01b03841691638214b4f091889188918190604401848480828437600081840152601f19601f8201169050808301925050509350505050602060405180830381600087803b15801561193c57600080fd5b505af1158015611950573d6000803e3d6000fd5b505050506040513d602081101561196657600080fd5b505160035460408051630852cd8d60e31b81526004810184905290519293506001600160a01b03909116916342966c689160248082019260009290919082900301818387803b1580156119b857600080fd5b505af11580156119cc573d6000803e3d6000fd5b50505050505050505050565b600054600160a01b900460ff1615611a2a576040805162461bcd60e51b815260206004820152601060248201526f14185d5cd8589b194e881c185d5cd95960821b604482015290519081900360640190fd5b6000805460ff60a01b1916600160a01b1790557f62e78cea01bee320cd4e420270b5ea74000d11b0c9f74754ebdbfc544b05a25861187b6117d9565b60006109ff848484611d4f565b600061109682611e19565b6004546040516001600160a01b038084169216907f333c7678baf16017cf31e1d2f90143a62aab01a67a0807f6836a4304ceabb55590600090a3600480546001600160a01b0319166001600160a01b0392909216919091179055565b60006117e98383611e1d565b60006109ff84846001600160a01b038516611e35565b611b046117d9565b6000546001600160a01b03908116911614611b54576040805162461bcd60e51b81526020600482018190526024820152600080516020611f35833981519152604482015290519081900360640190fd5b6001600160a01b038116611b995760405162461bcd60e51b8152600401808060200182810382526026815260200180611eed6026913960400191505060405180910390fd5b600080546040516001600160a01b03808516939216917f8be0079c531659141344cd1fd0a4f28419497f9722a3daafe3b4186f6b6457e091a3600080546001600160a01b0319166001600160a01b0392909216919091179055565b6000611c016006866117dd565b600854604051637f20e06d60e11b8152602481018590526001600160a01b03918216604482018190526060600483019081526064830188905293945084939284169263fe41c0da928992899289928190608401868680828437600081840152601f19601f82011690508083019250505095505050505050600060405180830381600087803b1580156119b857600080fd5b60006117e983836040518060400160405280601e81526020017f456e756d657261626c654d61703a206e6f6e6578697374656e74206b65790000815250611d4f565b815460009081908310611d185760405162461bcd60e51b8152600401808060200182810382526022815260200180611f136022913960400191505060405180910390fd5b6000846000018481548110611d2957fe5b906000526020600020906002020190508060000154816001015492509250509250929050565b60008281526001840160205260408120548281611dea5760405162461bcd60e51b81526004018080602001828103825283818151815260200191508051906020019080838360005b83811015611daf578181015183820152602001611d97565b50505050905090810190601f168015611ddc5780820380516001836020036101000a031916815260200191505b509250505060405180910390fd5b50846000016001820381548110611dfd57fe5b9060005260206000209060020201600101549150509392505050565b5490565b60009081526001919091016020526040902054151590565b600082815260018401602052604081205480611e9a5750506040805180820182528381526020808201848152865460018181018955600089815284812095516002909302909501918255915190820155865486845281880190925292909120556117e9565b82856000016001830381548110611ead57fe5b90600052602060002090600202016001018190555060009150506117e956fe5265656e7472616e637947756172643a207265656e7472616e742063616c6c004f776e61626c653a206e6577206f776e657220697320746865207a65726f2061646472657373456e756d657261626c654d61703a20696e646578206f7574206f6620626f756e64734f776e61626c653a2063616c6c6572206973206e6f7420746865206f776e6572a2646970667358221220c252570d14a77d22d1dfa13eec29c9cba2275cd9ff363f9620ca3a8a8568160a64736f6c634300060c003360806040523480156200001157600080fd5b5060405162001c7638038062001c76833981810160405260408110156200003757600080fd5b81019080805160405193929190846401000000008211156200005857600080fd5b9083019060208201858111156200006e57600080fd5b82516401000000008111828201881017156200008957600080fd5b82525081516020918201929091019080838360005b83811015620000b85781810151838201526020016200009e565b50505050905090810190601f168015620000e65780820380516001836020036101000a031916815260200191505b50604052602001805160405193929190846401000000008211156200010a57600080fd5b9083019060208201858111156200012057600080fd5b82516401000000008111828201881017156200013b57600080fd5b82525081516020918201929091019080838360005b838110156200016a57818101518382015260200162000150565b50505050905090810190601f168015620001985780820380516001836020036101000a031916815260200191505b50604052505082518391508290620001b890600490602085019062000375565b508051620001ce90600590602084019062000375565b50506006805461ff001960ff1990911660121716905550620001fb6000620001f562000261565b62000265565b6200022a7f9f2df0fed2c77648de5860a4cc508cd0818c85b8b8a1ab4ceeef8d981c8956a6620001f562000261565b620002597f65d7a28e3265b37a6474929f336521b332c1681b933f6cb9f3376673440d862a620001f562000261565b505062000411565b3390565b62000271828262000275565b5050565b6000828152602081815260409091206200029a91839062000b81620002ee821b17901c565b156200027157620002aa62000261565b6001600160a01b0316816001600160a01b0316837f2f8788117e7eff1d82e926ec794901d17c78024a50270940304540a733656f0d60405160405180910390a45050565b600062000305836001600160a01b0384166200030e565b90505b92915050565b60006200031c83836200035d565b620003545750815460018181018455600084815260208082209093018490558454848252828601909352604090209190915562000308565b50600062000308565b60009081526001919091016020526040902054151590565b828054600181600116156101000203166002900490600052602060002090601f016020900481019282601f10620003b857805160ff1916838001178555620003e8565b82800160010185558215620003e8579182015b82811115620003e8578251825591602001919060010190620003cb565b50620003f6929150620003fa565b5090565b5b80821115620003f65760008155600101620003fb565b61185580620004216000396000f3fe608060405234801561001057600080fd5b50600436106101795760003560e01c806370a08231116100d9578063a457c2d711610087578063a457c2d71461047a578063a9059cbb146104a6578063ca15c873146104d2578063d5391393146104ef578063d547741f146104f7578063dd62ed3e14610523578063e63ab1e91461055157610179565b806370a08231146103a557806379cc6790146103cb5780638456cb59146103f75780639010d07c146103ff57806391d148541461043e57806395d89b411461046a578063a217fddf1461047257610179565b8063313ce56711610136578063313ce567146102d657806336568abe146102f457806339509351146103205780633f4ba83a1461034c57806340c10f191461035457806342966c68146103805780635c975abb1461039d57610179565b806306fdde031461017e578063095ea7b3146101fb57806318160ddd1461023b57806323b872dd14610255578063248a9ca31461028b5780632f2ff15d146102a8575b600080fd5b610186610559565b6040805160208082528351818301528351919283929083019185019080838360005b838110156101c05781810151838201526020016101a8565b50505050905090810190601f1680156101ed5780820380516001836020036101000a031916815260200191505b509250505060405180910390f35b6102276004803603604081101561021157600080fd5b506001600160a01b0381351690602001356105ef565b604080519115158252519081900360200190f35b61024361060d565b60408051918252519081900360200190f35b6102276004803603606081101561026b57600080fd5b506001600160a01b03813581169160208101359091169060400135610613565b610243600480360360208110156102a157600080fd5b503561069a565b6102d4600480360360408110156102be57600080fd5b50803590602001356001600160a01b03166106af565b005b6102de61071b565b6040805160ff9092168252519081900360200190f35b6102d46004803603604081101561030a57600080fd5b50803590602001356001600160a01b0316610724565b6102276004803603604081101561033657600080fd5b506001600160a01b038135169060200135610785565b6102d46107d3565b6102d46004803603604081101561036a57600080fd5b506001600160a01b038135169060200135610832565b6102d46004803603602081101561039657600080fd5b50356108a3565b6102276108b7565b610243600480360360208110156103bb57600080fd5b50356001600160a01b03166108c5565b6102d4600480360360408110156103e157600080fd5b506001600160a01b0381351690602001356108e0565b6102d461093a565b6104226004803603604081101561041557600080fd5b5080359060200135610997565b604080516001600160a01b039092168252519081900360200190f35b6102276004803603604081101561045457600080fd5b50803590602001356001600160a01b03166109b6565b6101866109ce565b610243610a2f565b6102276004803603604081101561049057600080fd5b506001600160a01b038135169060200135610a34565b610227600480360360408110156104bc57600080fd5b506001600160a01b038135169060200135610a9c565b610243600480360360208110156104e857600080fd5b5035610ab0565b610243610ac7565b6102d46004803603604081101561050d57600080fd5b50803590602001356001600160a01b0316610aeb565b6102436004803603604081101561053957600080fd5b506001600160a01b0381358116916020013516610b44565b610243610b6f565b60048054604080516020601f60026000196101006001881615020190951694909404938401819004810282018101909252828152606093909290918301828280156105e55780601f106105ba576101008083540402835291602001916105e5565b820191906000526020600020905b8154815290600101906020018083116105c857829003601f168201915b5050505050905090565b60006106036105fc610b96565b8484610b9a565b5060015b92915050565b60035490565b6000610620848484610c86565b6106908461062c610b96565b61068b8560405180606001604052806028815260200161163f602891396001600160a01b038a1660009081526002602052604081209061066a610b96565b6001600160a01b031681526020810191909152604001600020549190610dd1565b610b9a565b5060019392505050565b60009081526020819052604090206002015490565b6000828152602081905260409020600201546106d2906106cd610b96565b6109b6565b61070d5760405162461bcd60e51b815260040180806020018281038252602f81526020018061153d602f913960400191505060405180910390fd5b6107178282610e68565b5050565b60065460ff1690565b61072c610b96565b6001600160a01b0316816001600160a01b03161461077b5760405162461bcd60e51b815260040180806020018281038252602f8152602001806117c7602f913960400191505060405180910390fd5b6107178282610ed1565b6000610603610792610b96565b8461068b85600260006107a3610b96565b6001600160a01b03908116825260208083019390935260409182016000908120918c168152925290205490610f3a565b6107ed6000805160206116678339815191526106cd610b96565b6108285760405162461bcd60e51b815260040180806020018281038252603981526020018061158e6039913960400191505060405180910390fd5b610830610f94565b565b61085e7f9f2df0fed2c77648de5860a4cc508cd0818c85b8b8a1ab4ceeef8d981c8956a66106cd610b96565b6108995760405162461bcd60e51b81526004018080602001828103825260368152602001806116876036913960400191505060405180910390fd5b6107178282611038565b6108b46108ae610b96565b82611118565b50565b600654610100900460ff1690565b6001600160a01b031660009081526001602052604090205490565b6000610917826040518060600160405280602481526020016116bd602491396109108661090b610b96565b610b44565b9190610dd1565b905061092b83610925610b96565b83610b9a565b6109358383611118565b505050565b6109546000805160206116678339815191526106cd610b96565b61098f5760405162461bcd60e51b815260040180806020018281038252603781526020018061176b6037913960400191505060405180910390fd5b610830611202565b60008281526020819052604081206109af908361128a565b9392505050565b60008281526020819052604081206109af9083611296565b60058054604080516020601f60026000196101006001881615020190951694909404938401819004810282018101909252828152606093909290918301828280156105e55780601f106105ba576101008083540402835291602001916105e5565b600081565b6000610603610a41610b96565b8461068b856040518060600160405280602581526020016117a26025913960026000610a6b610b96565b6001600160a01b03908116825260208083019390935260409182016000908120918d16815292529020549190610dd1565b6000610603610aa9610b96565b8484610c86565b6000818152602081905260408120610607906112ab565b7f9f2df0fed2c77648de5860a4cc508cd0818c85b8b8a1ab4ceeef8d981c8956a681565b600082815260208190526040902060020154610b09906106cd610b96565b61077b5760405162461bcd60e51b815260040180806020018281038252603081526020018061160f6030913960400191505060405180910390fd5b6001600160a01b03918216600090815260026020908152604080832093909416825291909152205490565b60008051602061166783398151915281565b60006109af836001600160a01b0384166112b6565b3390565b6001600160a01b038316610bdf5760405162461bcd60e51b81526004018080602001828103825260248152602001806117476024913960400191505060405180910390fd5b6001600160a01b038216610c245760405162461bcd60e51b81526004018080602001828103825260228152602001806115c76022913960400191505060405180910390fd5b6001600160a01b03808416600081815260026020908152604080832094871680845294825291829020859055815185815291517f8c5be1e5ebec7d5bd14f71427d1e84f3dd0314c0f7b2291e5b200ac8c7c3b9259281900390910190a3505050565b6001600160a01b038316610ccb5760405162461bcd60e51b81526004018080602001828103825260258152602001806117226025913960400191505060405180910390fd5b6001600160a01b038216610d105760405162461bcd60e51b815260040180806020018281038252602381526020018061151a6023913960400191505060405180910390fd5b610d1b838383611300565b610d58816040518060600160405280602681526020016115e9602691396001600160a01b0386166000908152600160205260409020549190610dd1565b6001600160a01b038085166000908152600160205260408082209390935590841681522054610d879082610f3a565b6001600160a01b0380841660008181526001602090815260409182902094909455805185815290519193928716926000805160206116e183398151915292918290030190a3505050565b60008184841115610e605760405162461bcd60e51b81526004018080602001828103825283818151815260200191508051906020019080838360005b83811015610e25578181015183820152602001610e0d565b50505050905090810190601f168015610e525780820380516001836020036101000a031916815260200191505b509250505060405180910390fd5b505050900390565b6000828152602081905260409020610e809082610b81565b1561071757610e8d610b96565b6001600160a01b0316816001600160a01b0316837f2f8788117e7eff1d82e926ec794901d17c78024a50270940304540a733656f0d60405160405180910390a45050565b6000828152602081905260409020610ee9908261130b565b1561071757610ef6610b96565b6001600160a01b0316816001600160a01b0316837ff6391f5c32d9c69d2a47ea670b442974b53935d1edc7fd64eb21e047a839171b60405160405180910390a45050565b6000828201838110156109af576040805162461bcd60e51b815260206004820152601b60248201527f536166654d6174683a206164646974696f6e206f766572666c6f770000000000604482015290519081900360640190fd5b600654610100900460ff16610fe7576040805162461bcd60e51b815260206004820152601460248201527314185d5cd8589b194e881b9bdd081c185d5cd95960621b604482015290519081900360640190fd5b6006805461ff00191690557f5db9ee0a495bf2e6ff9c91a7834c1ba4fdd244a5e8aa4e537bd38aeae4b073aa61101b610b96565b604080516001600160a01b039092168252519081900360200190a1565b6001600160a01b038216611093576040805162461bcd60e51b815260206004820152601f60248201527f45524332303a206d696e7420746f20746865207a65726f206164647265737300604482015290519081900360640190fd5b61109f60008383611300565b6003546110ac9082610f3a565b6003556001600160a01b0382166000908152600160205260409020546110d29082610f3a565b6001600160a01b03831660008181526001602090815260408083209490945583518581529351929391926000805160206116e18339815191529281900390910190a35050565b6001600160a01b03821661115d5760405162461bcd60e51b81526004018080602001828103825260218152602001806117016021913960400191505060405180910390fd5b61116982600083611300565b6111a68160405180606001604052806022815260200161156c602291396001600160a01b0385166000908152600160205260409020549190610dd1565b6001600160a01b0383166000908152600160205260409020556003546111cc9082611320565b6003556040805182815290516000916001600160a01b038516916000805160206116e18339815191529181900360200190a35050565b600654610100900460ff1615611252576040805162461bcd60e51b815260206004820152601060248201526f14185d5cd8589b194e881c185d5cd95960821b604482015290519081900360640190fd5b6006805461ff0019166101001790557f62e78cea01bee320cd4e420270b5ea74000d11b0c9f74754ebdbfc544b05a25861101b610b96565b60006109af8383611362565b60006109af836001600160a01b0384166113c6565b6000610607826113de565b60006112c283836113c6565b6112f857508154600181810184556000848152602080822090930184905584548482528286019093526040902091909155610607565b506000610607565b6109358383836113e2565b60006109af836001600160a01b038416611431565b60006109af83836040518060400160405280601e81526020017f536166654d6174683a207375627472616374696f6e206f766572666c6f770000815250610dd1565b815460009082106113a45760405162461bcd60e51b81526004018080602001828103825260228152602001806114f86022913960400191505060405180910390fd5b8260000182815481106113b357fe5b9060005260206000200154905092915050565b60009081526001919091016020526040902054151590565b5490565b6113ed838383610935565b6113f56108b7565b156109355760405162461bcd60e51b815260040180806020018281038252602a8152602001806117f6602a913960400191505060405180910390fd5b600081815260018301602052604081205480156114ed578354600019808301919081019060009087908390811061146457fe5b906000526020600020015490508087600001848154811061148157fe5b6000918252602080832090910192909255828152600189810190925260409020908401905586548790806114b157fe5b60019003818190600052602060002001600090559055866001016000878152602001908152602001600020600090556001945050505050610607565b600091505061060756fe456e756d657261626c655365743a20696e646578206f7574206f6620626f756e647345524332303a207472616e7366657220746f20746865207a65726f2061646472657373416363657373436f6e74726f6c3a2073656e646572206d75737420626520616e2061646d696e20746f206772616e7445524332303a206275726e20616d6f756e7420657863656564732062616c616e636545524332305072657365744d696e7465725061757365723a206d75737420686176652070617573657220726f6c6520746f20756e706175736545524332303a20617070726f766520746f20746865207a65726f206164647265737345524332303a207472616e7366657220616d6f756e7420657863656564732062616c616e6365416363657373436f6e74726f6c3a2073656e646572206d75737420626520616e2061646d696e20746f207265766f6b6545524332303a207472616e7366657220616d6f756e74206578636565647320616c6c6f77616e636565d7a28e3265b37a6474929f336521b332c1681b933f6cb9f3376673440d862a45524332305072657365744d696e7465725061757365723a206d7573742068617665206d696e74657220726f6c6520746f206d696e7445524332303a206275726e20616d6f756e74206578636565647320616c6c6f77616e6365ddf252ad1be2c89b69c2b068fc378daa952ba7f163c4a11628f55a4df523b3ef45524332303a206275726e2066726f6d20746865207a65726f206164647265737345524332303a207472616e736665722066726f6d20746865207a65726f206164647265737345524332303a20617070726f76652066726f6d20746865207a65726f206164647265737345524332305072657365744d696e7465725061757365723a206d75737420686176652070617573657220726f6c6520746f20706175736545524332303a2064656372656173656420616c6c6f77616e63652062656c6f77207a65726f416363657373436f6e74726f6c3a2063616e206f6e6c792072656e6f756e636520726f6c657320666f722073656c6645524332305061757361626c653a20746f6b656e207472616e73666572207768696c6520706175736564a26469706673582212206130014f97dbd16fd03646e95b4536191f4361184f9662a1f152d08acc1c3a1164736f6c634300060c0033",
  "immutableReferences": {},
  "source": "// SPDX-License-Identifier: MIT\npragma solidity 0.6.12;\n\nimport \"@openzeppelin/contracts/access/Ownable.sol\";\nimport \"@openzeppelin/contracts/math/SafeMath.sol\";\nimport \"@openzeppelin/contracts/utils/Pausable.sol\";\nimport \"@openzeppelin/contracts/utils/ReentrancyGuard.sol\";\nimport \"@openzeppelin/contracts/token/ERC20/SafeERC20.sol\";\nimport \"@openzeppelin/contracts/presets/ERC20PresetMinterPauser.sol\";\nimport \"@openzeppelin/contracts/utils/EnumerableMap.sol\";\nimport \"./IUBIBeneficiary.sol\";\nimport \"./IUBIReconciliationAccount.sol\";\nimport \"./IUBIBeneficiaryFactory.sol\";\n\n/**\n * @title Celo UBI administrative contract\n *\n * @dev Administrative and orchestrator contract for the Celo UBI program\n *\n * @author Aaron Boyd <https://github.com/aaronmboyd>\n */\ncontract UBIController is Ownable, Pausable, ReentrancyGuard {\n    using SafeMath for uint256;\n    using SafeERC20 for IERC20;\n    using SafeERC20 for ERC20PresetMinterPauser;\n    using EnumerableMap for EnumerableMap.UintToAddressMap;\n\n    /**\n     * @notice Triggered when a new user has been created\n     *\n     * @param _userId       Hashed bytes32 of the userId\n     * @param _ubiAddress   Celo address of the UBI Beneficiary\n     */\n    event NewUser(bytes32 indexed _userId, address indexed _ubiAddress);\n\n    /**\n     * @notice Triggered when the disbursement amount is changed\n     *\n     * @param _disbursementWei   New value of wei to disburse to beneficiaries\n     */\n    event DisbursementUpdated(uint256 indexed _disbursementWei);\n\n    /**\n     * @notice Triggered when the UBI Beneficiary Factory is updated\n     *\n     * @param _oldFactoryAddress   Old factory address\n     * @param _newFactoryAddress   New factory address\n     */\n    event FactoryUpdated(address indexed _oldFactoryAddress, address indexed _newFactoryAddress);\n\n    IERC20 public cUSDToken;\n    ERC20PresetMinterPauser public cUBIAuthToken;\n    IUBIBeneficiaryFactory public ubiBeneficiaryFactory;\n\n    // Default disbursement amount\n    uint256 public disbursementWei = 100 ether;\n\n    // Mapping of UBI Beneficiary identifiers to their contract address\n    EnumerableMap.UintToAddressMap private ubiBeneficiaries;\n\n    // Address of the reconciliation contract\n    IUBIReconciliationAccount public reconciliationAccount;\n\n    /**\n     * @notice Used to initialize a new CeloUBI contract\n     *\n     * @param _cUSDToken token used for cUSD\n     */\n    constructor(\n        IERC20 _cUSDToken,\n        address _custodian,\n        address _ubiBeneficiaryFactory\n    ) public {\n        cUSDToken = _cUSDToken;\n        cUBIAuthToken = new ERC20PresetMinterPauser(\"Celo UBI Authorization Token\", \"cUBIAUTH\");\n        _setUBIBeneficiaryFactory(_ubiBeneficiaryFactory);\n\n        address reconciliationAddress =\n            ubiBeneficiaryFactory.createUBIReconciliationAccount(\n                _cUSDToken,\n                cUBIAuthToken,\n                _custodian\n            );\n        reconciliationAccount = IUBIReconciliationAccount(reconciliationAddress);\n    }\n\n    /**\n     * @notice Enforces values > 0 only\n     */\n    modifier greaterThanZero(uint256 _value) {\n        require(_value > 0, \"ERR_ZERO_VALUE\");\n        _;\n    }\n\n    /**\n     * @notice Enforces value to not be greater than a user's available balance\n     */\n    modifier balanceAvailable(bytes32 _userId, uint256 _value) {\n        require(balanceOfUBIBeneficiary(_userId) >= _value, \"ERR_NO_BALANCE\");\n        _;\n    }\n\n    /**\n     * @notice Enforces a _userId should not be mapped to an existing user / contract address\n     */\n    modifier userNotExist(bytes32 _userId) {\n        require(!ubiBeneficiaries.contains(uint256(_userId)), \"ERR_USER_EXISTS\");\n        _;\n    }\n\n    /**\n     * @notice Set amount of wei to disburse to new beneficiaries\n     *\n     * @param _newDisbursementWei   disbursement amount in wei\n     */\n    function setDisbursementWei(uint256 _newDisbursementWei) external onlyOwner {\n        disbursementWei = _newDisbursementWei;\n        emit DisbursementUpdated(disbursementWei);\n    }\n\n    /**\n     * @notice Public update to a new UBI Beneficiary Factory\n     *\n     * @param _newFactoryAddress   new factory address\n     */\n    function setUBIBeneficiaryFactory(address _newFactoryAddress) external onlyOwner {\n        _setUBIBeneficiaryFactory(_newFactoryAddress);\n    }\n\n    /**\n     * @notice Internal implementation of update to a new UBI Beneficiary Factory\n     *\n     * @param _newFactoryAddress   new factory address\n     */\n    function _setUBIBeneficiaryFactory(address _newFactoryAddress) private {\n        emit FactoryUpdated(address(ubiBeneficiaryFactory), _newFactoryAddress);\n        ubiBeneficiaryFactory = IUBIBeneficiaryFactory(_newFactoryAddress);\n    }\n\n    /**\n     * @notice Update the custodian address\n     *\n     * @param _custodian   new custodian address\n     */\n    function setCustodian(address _custodian) external onlyOwner {\n        reconciliationAccount.setCustodian(_custodian);\n    }\n\n    /**\n     * @notice Retrieves the available balance of a UBI beneficiary\n     *\n     * @param _userId user identifier\n     * @return uint256 available balance\n     */\n    function balanceOfUBIBeneficiary(bytes32 _userId) public view returns (uint256) {\n        address ubiBeneficiaryAddress = ubiBeneficiaries.get(uint256(_userId));\n        IUBIBeneficiary user = IUBIBeneficiary(ubiBeneficiaryAddress);\n        return user.availableBalance();\n    }\n\n    /**\n     * @notice Retrieves the authorized balance of a UBI beneficiary\n     *\n     * @param _userId user identifier\n     * @return uint256 authorized balance\n     */\n    function authBalanceOfUBIBeneficiary(bytes32 _userId) public view returns (uint256) {\n        address ubiBeneficiaryAddress = ubiBeneficiaries.get(uint256(_userId));\n        IUBIBeneficiary user = IUBIBeneficiary(ubiBeneficiaryAddress);\n        return user.authorizationBalance();\n    }\n\n    /**\n     * @notice Authorizes an amount for a UBI beneficiary\n     *\n     * @param _userId       User identifier\n     * @param _txId         Raw transaction ID for this event\n     * @param _value        Amount to authorize\n     */\n    function authorize(\n        bytes32 _userId,\n        string calldata _txId,\n        uint256 _value\n    )\n        external\n        greaterThanZero(_value)\n        balanceAvailable(_userId, _value)\n        onlyOwner\n        nonReentrant\n        whenNotPaused\n    {\n        address ubiBeneficiaryAddress = ubiBeneficiaries.get(uint256(_userId));\n        cUBIAuthToken.mint(ubiBeneficiaryAddress, _value);\n\n        IUBIBeneficiary user = IUBIBeneficiary(ubiBeneficiaryAddress);\n        user.authorize(_txId, _value);\n    }\n\n    /**\n     * @notice Deauthorizes an amount for a UBI beneficiary\n     *\n     * @param _userId       User identifier\n     * @param _txId         Raw transaction ID for this event\n     */\n    function deauthorize(bytes32 _userId, string calldata _txId)\n        external\n        onlyOwner\n        nonReentrant\n        whenNotPaused\n    {\n        _deauthorize(uint256(_userId), _txId);\n    }\n\n    /**\n     * @notice Deauthorizes an amount for a UBI beneficiary\n     * @dev Implementation of external \"deauthorize\" function so that it may be called internally without reentrancy guard incrementing\n     *\n     * @param _userId       User identifier\n     * @param _txId         Raw transaction ID for this event\n     */\n    function _deauthorize(uint256 _userId, string calldata _txId) private {\n        address ubiBeneficiaryAddress = ubiBeneficiaries.get(_userId);\n        IUBIBeneficiary user = IUBIBeneficiary(ubiBeneficiaryAddress);\n        uint256 deauthorizedAmt = user.deauthorize(_txId);\n        cUBIAuthToken.burn(deauthorizedAmt);\n    }\n\n    /**\n     * @notice Settles an amount for a UBI Beneficiary and transfers to the Reconciliation account\n     *\n     * @param _userId       User identifier\n     * @param _txId         Raw transaction ID for this event\n     * @param _value        Amount to settle\n     */\n    function settle(\n        bytes32 _userId,\n        string calldata _txId,\n        uint256 _value\n    )\n        external\n        greaterThanZero(_value)\n        balanceAvailable(_userId, _value)\n        onlyOwner\n        nonReentrant\n        whenNotPaused\n    {\n        _settle(uint256(_userId), _txId, _value);\n    }\n\n    /**\n     * @notice Settles an amount for a UBI Beneficiary and transfers to the Reconciliation account\n     * @dev Implementation of external \"settle\" function so that it may be called internally without reentrancy guard incrementing\n     *\n     * @param _userId       User identifier\n     * @param _txId         Raw transaction ID for this event\n     * @param _value        Amount to settle\n     */\n    function _settle(\n        uint256 _userId,\n        string calldata _txId,\n        uint256 _value\n    ) private {\n        address ubiBeneficiaryAddress = ubiBeneficiaries.get(_userId);\n        IUBIBeneficiary user = IUBIBeneficiary(ubiBeneficiaryAddress);\n        user.settle(_txId, _value, address(reconciliationAccount));\n    }\n\n    /**\n     * @notice Reconciles cUSD built up in reconciliation account and sends to pre-configured custodian\n     *\n     */\n    function reconcile() external onlyOwner nonReentrant whenNotPaused {\n        reconciliationAccount.reconcile();\n    }\n\n    /**\n     * @notice create a new user and assign them a wallet contract\n     *\n     * @param _userId user identifier\n     */\n    function newUbiBeneficiary(string calldata _userId)\n        external\n        onlyOwner\n        nonReentrant\n        whenNotPaused\n        userNotExist(keccak256(bytes(_userId)))\n    {\n        address newUBIBeneficiaryAddress =\n            ubiBeneficiaryFactory.createUBIBeneficiary(cUSDToken, cUBIAuthToken, _userId);\n        bytes32 key = keccak256(bytes(_userId));\n        ubiBeneficiaries.set(uint256(key), newUBIBeneficiaryAddress);\n        cUSDToken.transfer(newUBIBeneficiaryAddress, disbursementWei);\n\n        emit NewUser(key, newUBIBeneficiaryAddress);\n    }\n\n    /**\n     * @notice retrieve contract address for a UBI Beneficiary\n     *\n     * @param _userId user identifier\n     * @return address of user's contract\n     */\n    function beneficiaryAddress(bytes32 _userId) public view returns (address) {\n        return ubiBeneficiaries.get(uint256(_userId), \"ERR_USER_NOT_EXIST\");\n    }\n\n    /**\n     * @notice Transfers ownership of the contract to a new account (`newOwner`).\n     * Can only be called by the current owner.\n     *\n     * @dev In this override, we iterate all the existing UBIBeneficiary contracts\n     * and change their owner before changing the owner of the core contract\n     *\n     * @param newOwner new owner of this contract\n     * @inheritdoc Ownable\n     *\n     */\n    function transferOwnership(address newOwner) public override onlyOwner {\n        // 1 Update owner on all UBIBeneficiary contracts\n        uint256 i;\n        for (i = 0; i < ubiBeneficiaries.length(); i++) {\n            address ubiBeneficiaryAddress;\n\n            // .at function returns a tuple of (uint256, address)\n            (, ubiBeneficiaryAddress) = ubiBeneficiaries.at(i);\n\n            IUBIBeneficiary user = IUBIBeneficiary(ubiBeneficiaryAddress);\n            user.transferOwner(newOwner);\n        }\n\n        // 2 Update reconciliation account owner\n        reconciliationAccount.transferOwner(newOwner);\n\n        // 3 Update owner of this contract\n        super.transferOwnership(newOwner);\n    }\n\n    /**\n     * @notice Triggers stopped state.\n     *\n     * @dev Requirements: The contract must not be paused.\n     */\n    function pause() external onlyOwner nonReentrant {\n        _pause();\n    }\n\n    /**\n     * @notice Returns to normal state.\n     *\n     * @dev Requirements: The contract must be paused.\n     */\n    function unpause() external onlyOwner nonReentrant {\n        _unpause();\n    }\n\n    /**\n     * @notice Emergency withdrawal of all remaining cUSD to the custodian account\n     *\n     * @dev The contract must be paused\n     * @dev Sends cUSD to current custodian from the current reconciliation account\n     */\n    function withdrawToCustodian() external onlyOwner whenPaused nonReentrant {\n        uint256 balanceOf = cUSDToken.balanceOf(address(this));\n        address custodian = reconciliationAccount.getCustodian();\n        cUSDToken.transfer(custodian, balanceOf);\n    }\n\n    /**\n     * @notice Get beneficiary address at index\n     * @dev Used for iterating the complete list of beneficiaries\n     *\n     */\n    function getBeneficiaryAddressAtIndex(uint256 _index) external view returns (address) {\n        // .at function returns a tuple of (uint256, address)\n        address ubiBeneficiaryAddress;\n        (, ubiBeneficiaryAddress) = ubiBeneficiaries.at(_index);\n\n        return ubiBeneficiaryAddress;\n    }\n\n    /**\n     * @notice Get count of beneficiaries\n     *\n     */\n    function getBeneficiaryCount() external view returns (uint256) {\n        return ubiBeneficiaries.length();\n    }\n}\n",
  "sourcePath": "/home/boyd/git/keyko/celo-ubi-contract/contracts/UBIController.sol",
  "compiler": {
    "name": "solc",
    "version": "0.6.12+commit.27d51765.Emscripten.clang"
  },
  "schemaVersion": "3.3.2",
  "updatedAt": "2021-01-06T10:50:40.003Z",
  "devdoc": {
    "author": "Aaron Boyd <https://github.com/aaronmboyd>",
    "details": "Administrative and orchestrator contract for the Celo UBI program",
    "events": {
      "DisbursementUpdated(uint256)": {
        "params": {
          "_disbursementWei": "New value of wei to disburse to beneficiaries"
        }
      },
      "FactoryUpdated(address,address)": {
        "params": {
          "_newFactoryAddress": "New factory address",
          "_oldFactoryAddress": "Old factory address"
        }
      },
      "NewUser(bytes32,address)": {
        "params": {
          "_ubiAddress": "Celo address of the UBI Beneficiary",
          "_userId": "Hashed bytes32 of the userId"
        }
      }
    },
    "kind": "dev",
    "methods": {
      "authBalanceOfUBIBeneficiary(bytes32)": {
        "params": {
          "_userId": "user identifier"
        },
        "returns": {
          "_0": "uint256 authorized balance"
        }
      },
      "authorize(bytes32,string,uint256)": {
        "params": {
          "_txId": "Raw transaction ID for this event",
          "_userId": "User identifier",
          "_value": "Amount to authorize"
        }
      },
      "balanceOfUBIBeneficiary(bytes32)": {
        "params": {
          "_userId": "user identifier"
        },
        "returns": {
          "_0": "uint256 available balance"
        }
      },
      "beneficiaryAddress(bytes32)": {
        "params": {
          "_userId": "user identifier"
        },
        "returns": {
          "_0": "address of user's contract"
        }
      },
      "constructor": {
        "params": {
          "_cUSDToken": "token used for cUSD"
        }
      },
      "deauthorize(bytes32,string)": {
        "params": {
          "_txId": "Raw transaction ID for this event",
          "_userId": "User identifier"
        }
      },
      "getBeneficiaryAddressAtIndex(uint256)": {
        "details": "Used for iterating the complete list of beneficiaries"
      },
      "newUbiBeneficiary(string)": {
        "params": {
          "_userId": "user identifier"
        }
      },
      "owner()": {
        "details": "Returns the address of the current owner."
      },
      "pause()": {
        "details": "Requirements: The contract must not be paused."
      },
      "paused()": {
        "details": "Returns true if the contract is paused, and false otherwise."
      },
      "renounceOwnership()": {
        "details": "Leaves the contract without owner. It will not be possible to call `onlyOwner` functions anymore. Can only be called by the current owner. NOTE: Renouncing ownership will leave the contract without an owner, thereby removing any functionality that is only available to the owner."
      },
      "setCustodian(address)": {
        "params": {
          "_custodian": "new custodian address"
        }
      },
      "setDisbursementWei(uint256)": {
        "params": {
          "_newDisbursementWei": "disbursement amount in wei"
        }
      },
      "setUBIBeneficiaryFactory(address)": {
        "params": {
          "_newFactoryAddress": "new factory address"
        }
      },
      "settle(bytes32,string,uint256)": {
        "params": {
          "_txId": "Raw transaction ID for this event",
          "_userId": "User identifier",
          "_value": "Amount to settle"
        }
      },
      "transferOwnership(address)": {
        "details": "In this override, we iterate all the existing UBIBeneficiary contracts and change their owner before changing the owner of the core contract",
        "params": {
          "newOwner": "new owner of this contract"
        }
      },
      "unpause()": {
        "details": "Requirements: The contract must be paused."
      },
      "withdrawToCustodian()": {
        "details": "The contract must be pausedSends cUSD to current custodian from the current reconciliation account"
      }
    },
    "title": "Celo UBI administrative contract",
    "version": 1
  },
  "userdoc": {
    "events": {
      "DisbursementUpdated(uint256)": {
        "notice": "Triggered when the disbursement amount is changed"
      },
      "FactoryUpdated(address,address)": {
        "notice": "Triggered when the UBI Beneficiary Factory is updated"
      },
      "NewUser(bytes32,address)": {
        "notice": "Triggered when a new user has been created"
      }
    },
    "kind": "user",
    "methods": {
      "authBalanceOfUBIBeneficiary(bytes32)": {
        "notice": "Retrieves the authorized balance of a UBI beneficiary"
      },
      "authorize(bytes32,string,uint256)": {
        "notice": "Authorizes an amount for a UBI beneficiary"
      },
      "balanceOfUBIBeneficiary(bytes32)": {
        "notice": "Retrieves the available balance of a UBI beneficiary"
      },
      "beneficiaryAddress(bytes32)": {
        "notice": "retrieve contract address for a UBI Beneficiary"
      },
      "constructor": "Used to initialize a new CeloUBI contract",
      "deauthorize(bytes32,string)": {
        "notice": "Deauthorizes an amount for a UBI beneficiary"
      },
      "getBeneficiaryAddressAtIndex(uint256)": {
        "notice": "Get beneficiary address at index"
      },
      "getBeneficiaryCount()": {
        "notice": "Get count of beneficiaries"
      },
      "newUbiBeneficiary(string)": {
        "notice": "create a new user and assign them a wallet contract"
      },
      "pause()": {
        "notice": "Triggers stopped state."
      },
      "reconcile()": {
        "notice": "Reconciles cUSD built up in reconciliation account and sends to pre-configured custodian"
      },
      "setCustodian(address)": {
        "notice": "Update the custodian address"
      },
      "setDisbursementWei(uint256)": {
        "notice": "Set amount of wei to disburse to new beneficiaries"
      },
      "setUBIBeneficiaryFactory(address)": {
        "notice": "Public update to a new UBI Beneficiary Factory"
      },
      "settle(bytes32,string,uint256)": {
        "notice": "Settles an amount for a UBI Beneficiary and transfers to the Reconciliation account"
      },
      "transferOwnership(address)": {
        "notice": "Transfers ownership of the contract to a new account (`newOwner`). Can only be called by the current owner."
      },
      "unpause()": {
        "notice": "Returns to normal state."
      },
      "withdrawToCustodian()": {
        "notice": "Emergency withdrawal of all remaining cUSD to the custodian account"
      }
    },
    "version": 1
  }
}