{
  "contractName": "UBIReconciliationAccount",
  "abi": [
    {
      "inputs": [
        {
          "internalType": "contract IERC20",
          "name": "_cUSDToken",
          "type": "address"
        },
        {
          "internalType": "contract ERC20PresetMinterPauser",
          "name": "_cUBIAuthToken",
          "type": "address"
        },
        {
          "internalType": "address",
          "name": "_custodian",
          "type": "address"
        }
      ],
      "stateMutability": "nonpayable",
      "type": "constructor"
    },
    {
      "anonymous": false,
      "inputs": [
        {
          "indexed": true,
          "internalType": "bytes32",
          "name": "_userId",
          "type": "bytes32"
        },
        {
          "indexed": true,
          "internalType": "address",
          "name": "_ubiAddress",
          "type": "address"
        },
        {
          "indexed": false,
          "internalType": "string",
          "name": "_txId",
          "type": "string"
        },
        {
          "indexed": false,
          "internalType": "uint256",
          "name": "_amt",
          "type": "uint256"
        }
      ],
      "name": "AuthorizationEvent",
      "type": "event"
    },
    {
      "anonymous": false,
      "inputs": [
        {
          "indexed": false,
          "internalType": "address",
          "name": "_custodianPrevious",
          "type": "address"
        },
        {
          "indexed": false,
          "internalType": "address",
          "name": "_custodianCurrent",
          "type": "address"
        }
      ],
      "name": "CustodianUpdated",
      "type": "event"
    },
    {
      "anonymous": false,
      "inputs": [
        {
          "indexed": true,
          "internalType": "bytes32",
          "name": "_userId",
          "type": "bytes32"
        },
        {
          "indexed": true,
          "internalType": "address",
          "name": "_ubiAddress",
          "type": "address"
        },
        {
          "indexed": false,
          "internalType": "string",
          "name": "_txId",
          "type": "string"
        },
        {
          "indexed": false,
          "internalType": "uint256",
          "name": "_amt",
          "type": "uint256"
        }
      ],
      "name": "DeauthorizationEvent",
      "type": "event"
    },
    {
      "anonymous": false,
      "inputs": [
        {
          "indexed": true,
          "internalType": "address",
          "name": "previousOwner",
          "type": "address"
        },
        {
          "indexed": true,
          "internalType": "address",
          "name": "newOwner",
          "type": "address"
        }
      ],
      "name": "OwnershipTransferred",
      "type": "event"
    },
    {
      "anonymous": false,
      "inputs": [
        {
          "indexed": false,
          "internalType": "address",
          "name": "_custodian",
          "type": "address"
        },
        {
          "indexed": false,
          "internalType": "uint256",
          "name": "_amt",
          "type": "uint256"
        }
      ],
      "name": "Reconciled",
      "type": "event"
    },
    {
      "anonymous": false,
      "inputs": [
        {
          "indexed": true,
          "internalType": "bytes32",
          "name": "_userId",
          "type": "bytes32"
        },
        {
          "indexed": true,
          "internalType": "address",
          "name": "_ubiAddress",
          "type": "address"
        },
        {
          "indexed": false,
          "internalType": "string",
          "name": "_txId",
          "type": "string"
        },
        {
          "indexed": false,
          "internalType": "uint256",
          "name": "_amt",
          "type": "uint256"
        }
      ],
      "name": "SettlementEvent",
      "type": "event"
    },
    {
      "inputs": [],
      "name": "authorizationBalance",
      "outputs": [
        {
          "internalType": "uint256",
          "name": "",
          "type": "uint256"
        }
      ],
      "stateMutability": "view",
      "type": "function"
    },
    {
      "inputs": [
        {
          "internalType": "string",
          "name": "_txId",
          "type": "string"
        },
        {
          "internalType": "uint256",
          "name": "_value",
          "type": "uint256"
        }
      ],
      "name": "authorize",
      "outputs": [],
      "stateMutability": "nonpayable",
      "type": "function"
    },
    {
      "inputs": [],
      "name": "availableBalance",
      "outputs": [
        {
          "internalType": "uint256",
          "name": "",
          "type": "uint256"
        }
      ],
      "stateMutability": "view",
      "type": "function"
    },
    {
      "inputs": [],
      "name": "cUBIAuthToken",
      "outputs": [
        {
          "internalType": "contract ERC20PresetMinterPauser",
          "name": "",
          "type": "address"
        }
      ],
      "stateMutability": "view",
      "type": "function"
    },
    {
      "inputs": [],
      "name": "cUSDToken",
      "outputs": [
        {
          "internalType": "contract IERC20",
          "name": "",
          "type": "address"
        }
      ],
      "stateMutability": "view",
      "type": "function"
    },
    {
      "inputs": [],
      "name": "createdBlock",
      "outputs": [
        {
          "internalType": "uint256",
          "name": "",
          "type": "uint256"
        }
      ],
      "stateMutability": "view",
      "type": "function"
    },
    {
      "inputs": [
        {
          "internalType": "string",
          "name": "_txId",
          "type": "string"
        }
      ],
      "name": "deauthorize",
      "outputs": [
        {
          "internalType": "uint256",
          "name": "",
          "type": "uint256"
        }
      ],
      "stateMutability": "nonpayable",
      "type": "function"
    },
    {
      "inputs": [
        {
          "internalType": "bytes32",
          "name": "_key",
          "type": "bytes32"
        }
      ],
      "name": "getAuthorizationAtKey",
      "outputs": [
        {
          "internalType": "uint256",
          "name": "",
          "type": "uint256"
        },
        {
          "internalType": "bool",
          "name": "",
          "type": "bool"
        },
        {
          "internalType": "string",
          "name": "",
          "type": "string"
        }
      ],
      "stateMutability": "view",
      "type": "function"
    },
    {
      "inputs": [],
      "name": "getAuthorizationKeys",
      "outputs": [
        {
          "internalType": "bytes32[]",
          "name": "",
          "type": "bytes32[]"
        }
      ],
      "stateMutability": "view",
      "type": "function"
    },
    {
      "inputs": [
        {
          "internalType": "bytes32",
          "name": "_key",
          "type": "bytes32"
        }
      ],
      "name": "getSettlementAtKey",
      "outputs": [
        {
          "internalType": "uint256",
          "name": "",
          "type": "uint256"
        },
        {
          "internalType": "string",
          "name": "",
          "type": "string"
        }
      ],
      "stateMutability": "view",
      "type": "function"
    },
    {
      "inputs": [],
      "name": "getSettlementKeys",
      "outputs": [
        {
          "internalType": "bytes32[]",
          "name": "",
          "type": "bytes32[]"
        }
      ],
      "stateMutability": "view",
      "type": "function"
    },
    {
      "inputs": [],
      "name": "owner",
      "outputs": [
        {
          "internalType": "address",
          "name": "",
          "type": "address"
        }
      ],
      "stateMutability": "view",
      "type": "function"
    },
    {
      "inputs": [],
      "name": "renounceOwnership",
      "outputs": [],
      "stateMutability": "nonpayable",
      "type": "function"
    },
    {
      "inputs": [
        {
          "internalType": "string",
          "name": "_txId",
          "type": "string"
        },
        {
          "internalType": "uint256",
          "name": "_value",
          "type": "uint256"
        },
        {
          "internalType": "address",
          "name": "_reconciliationAccount",
          "type": "address"
        }
      ],
      "name": "settle",
      "outputs": [],
      "stateMutability": "nonpayable",
      "type": "function"
    },
    {
      "inputs": [
        {
          "internalType": "address",
          "name": "newOwner",
          "type": "address"
        }
      ],
      "name": "transferOwner",
      "outputs": [],
      "stateMutability": "nonpayable",
      "type": "function"
    },
    {
      "inputs": [
        {
          "internalType": "address",
          "name": "newOwner",
          "type": "address"
        }
      ],
      "name": "transferOwnership",
      "outputs": [],
      "stateMutability": "nonpayable",
      "type": "function"
    },
    {
      "inputs": [],
      "name": "userId",
      "outputs": [
        {
          "internalType": "string",
          "name": "",
          "type": "string"
        }
      ],
      "stateMutability": "view",
      "type": "function"
    },
    {
      "inputs": [],
      "name": "reconcile",
      "outputs": [],
      "stateMutability": "nonpayable",
      "type": "function"
    },
    {
      "inputs": [
        {
          "internalType": "address",
          "name": "_custodian",
          "type": "address"
        }
      ],
      "name": "setCustodian",
      "outputs": [],
      "stateMutability": "nonpayable",
      "type": "function"
    },
    {
      "inputs": [],
      "name": "getCustodian",
      "outputs": [
        {
          "internalType": "address",
          "name": "",
          "type": "address"
        }
      ],
      "stateMutability": "view",
      "type": "function"
    }
  ],
  "bytecode": "0x60806040523480156200001157600080fd5b5060405162001ee538038062001ee5833981810160405260608110156200003757600080fd5b5080516020808301516040938401518451808601909552600a8552692932b1b7b731b4b632b960b11b928501929092529192839083906000620000796200012e565b600080546001600160a01b0319166001600160a01b0383169081178255604051929350917f8be0079c531659141344cd1fd0a4f28419497f9722a3daafe3b4186f6b6457e0908290a35060018055600280546001600160a01b038086166001600160a01b03199283161790925560038054928516929091169190911790554360045580516200011090600590602084019062000201565b5050505062000125816200013260201b60201c565b5050506200029d565b3390565b6200013c6200012e565b6000546001600160a01b039081169116146200019f576040805162461bcd60e51b815260206004820181905260248201527f4f776e61626c653a2063616c6c6572206973206e6f7420746865206f776e6572604482015290519081900360640190fd5b600a80546001600160a01b038381166001600160a01b0319831617928390556040805192821680845293909116602083015280517fb2acc6aeb8e34e039efca33cef7c32bbb131a9cf351b43e1296d793364f693ab9281900390910190a15050565b828054600181600116156101000203166002900490600052602060002090601f016020900481019282601f106200024457805160ff191683800117855562000274565b8280016001018555821562000274579182015b828111156200027457825182559160200191906001019062000257565b506200028292915062000286565b5090565b5b8082111562000282576000815560010162000287565b611c3880620002ad6000396000f3fe608060405234801561001057600080fd5b506004361061012c5760003560e01c8063715018a6116100ad578063ab2f0e5111610071578063ab2f0e51146104d7578063c561d4b7146104df578063f1e46269146104e7578063f2fde38b146104ef578063fe41c0da146105155761012c565b8063715018a6146103ac5780638214b4f0146103b45780638837bd5d146104225780638da5cb5b146104c75780638f0d7e35146104cf5761012c565b8063523a0623116100f4578063523a062314610215578063589759191461021d57806367fac0131461029a5780636b024330146103085780636b0b36a6146103105761012c565b80630ea86ad8146101315780633f346d4d14610155578063403f3731146101ad5780634593144c146101d55780634fb2e45d146101ef575b600080fd5b610139610592565b604080516001600160a01b039092168252519081900360200190f35b61015d6105a1565b60408051602080825283518183015283519192839290830191858101910280838360005b83811015610199578181015183820152602001610181565b505050509050019250505060405180910390f35b6101d3600480360360208110156101c357600080fd5b50356001600160a01b03166105f9565b005b6101dd61065d565b60408051918252519081900360200190f35b6101d36004803603602081101561020557600080fd5b50356001600160a01b0316610663565b61015d6106c4565b61022561071a565b6040805160208082528351818301528351919283929083019185019080838360005b8381101561025f578181015183820152602001610247565b50505050905090810190601f16801561028c5780820380516001836020036101000a031916815260200191505b509250505060405180910390f35b6101d3600480360360408110156102b057600080fd5b810190602081018135600160201b8111156102ca57600080fd5b8201836020820111156102dc57600080fd5b803590602001918460018302840111600160201b831117156102fd57600080fd5b9193509150356107a8565b610139610a0b565b61032d6004803603602081101561032657600080fd5b5035610a1a565b6040518083815260200180602001828103825283818151815260200191508051906020019080838360005b83811015610370578181015183820152602001610358565b50505050905090810190601f16801561039d5780820380516001836020036101000a031916815260200191505b50935050505060405180910390f35b6101d3610b06565b6101dd600480360360208110156103ca57600080fd5b810190602081018135600160201b8111156103e457600080fd5b8201836020820111156103f657600080fd5b803590602001918460018302840111600160201b8311171561041757600080fd5b509092509050610ba8565b61043f6004803603602081101561043857600080fd5b5035610c62565b60405180848152602001831515815260200180602001828103825283818151815260200191508051906020019080838360005b8381101561048a578181015183820152602001610472565b50505050905090810190601f1680156104b75780820380516001836020036101000a031916815260200191505b5094505050505060405180910390f35b610139610d4d565b6101d3610d5c565b6101dd610f30565b610139611053565b6101dd611062565b6101d36004803603602081101561050557600080fd5b50356001600160a01b03166110de565b6101d36004803603606081101561052b57600080fd5b810190602081018135600160201b81111561054557600080fd5b82018360208201111561055757600080fd5b803590602001918460018302840111600160201b8311171561057857600080fd5b9193509150803590602001356001600160a01b03166111d6565b6002546001600160a01b031681565b606060098054806020026020016040519081016040528092919081815260200182805480156105ef57602002820191906000526020600020905b8154815260200190600101908083116105db575b5050505050905090565b610601611485565b6000546001600160a01b03908116911614610651576040805162461bcd60e51b81526020600482018190526024820152600080516020611bb9833981519152604482015290519081900360640190fd5b61065a81611489565b50565b60045481565b61066b611485565b6000546001600160a01b039081169116146106bb576040805162461bcd60e51b81526020600482018190526024820152600080516020611bb9833981519152604482015290519081900360640190fd5b61065a816110de565b606060078054806020026020016040519081016040528092919081815260200182805480156105ef57602002820191906000526020600020908154815260200190600101908083116105db575050505050905090565b6005805460408051602060026001851615610100026000190190941693909304601f810184900484028201840190925281815292918301828280156107a05780601f10610775576101008083540402835291602001916107a0565b820191906000526020600020905b81548152906001019060200180831161078357829003601f168201915b505050505081565b6107b0611485565b6000546001600160a01b03908116911614610800576040805162461bcd60e51b81526020600482018190526024820152600080516020611bb9833981519152604482015290519081900360640190fd5b60026001541415610846576040805162461bcd60e51b815260206004820152601f6024820152600080516020611b73833981519152604482015290519081900360640190fd5b6002600181905550600083836040518083838082843760408051919093018190039020600081815260066020529290922054919550501592506108c5915050576040805162461bcd60e51b815260206004820152600f60248201526e4552525f415554485f45584953545360881b604482015290519081900360640190fd5b60008181526006602052604090206108e1600282018686611aa2565b506001808201805460ff191690558382556007805480830182556000919091527fa66cc928b5edb82af9bd49922954155ab7b0942694bea4ce44661d9a8736c6880183905560405160058054309391929182918491600290821615610100026000190190911604801561098b5780601f1061096957610100808354040283529182019161098b565b820191906000526020600020905b815481529060010190602001808311610977575b505091505060405180910390207fded52e9baec1da58e2276748c456d3de1acb844589e794895392b474b8a136e787878760405180806020018381526020018281038252858582818152602001925080828437600083820152604051601f909101601f1916909201829003965090945050505050a3505060018055505050565b6003546001600160a01b031681565b60006060610a26611b20565b6008600085815260200190815260200160002060405180604001604052908160008201548152602001600182018054600181600116156101000203166002900480601f016020809104026020016040519081016040528092919081815260200182805460018160011615610100020316600290048015610ae75780601f10610abc57610100808354040283529160200191610ae7565b820191906000526020600020905b815481529060010190602001808311610aca57829003601f168201915b5050505050815250509050806000015181602001519250925050915091565b610b0e611485565b6000546001600160a01b03908116911614610b5e576040805162461bcd60e51b81526020600482018190526024820152600080516020611bb9833981519152604482015290519081900360640190fd5b600080546040516001600160a01b03909116907f8be0079c531659141344cd1fd0a4f28419497f9722a3daafe3b4186f6b6457e0908390a3600080546001600160a01b0319169055565b6000610bb2611485565b6000546001600160a01b03908116911614610c02576040805162461bcd60e51b81526020600482018190526024820152600080516020611bb9833981519152604482015290519081900360640190fd5b60026001541415610c48576040805162461bcd60e51b815260206004820152601f6024820152600080516020611b73833981519152604482015290519081900360640190fd5b6002600155610c578383611543565b600180559392505050565b6000806060610c6f611b3a565b60008581526006602090815260409182902082516060810184528154815260018083015460ff161515828501526002808401805487516101009482161594909402600019011691909104601f81018690048602830186018752808352929593949386019391929091830182828015610d285780601f10610cfd57610100808354040283529160200191610d28565b820191906000526020600020905b815481529060010190602001808311610d0b57829003601f168201915b5050509190925250508151602083015160409093015190989297509550909350505050565b6000546001600160a01b031690565b610d64611485565b6000546001600160a01b03908116911614610db4576040805162461bcd60e51b81526020600482018190526024820152600080516020611bb9833981519152604482015290519081900360640190fd5b60026001541415610dfa576040805162461bcd60e51b815260206004820152601f6024820152600080516020611b73833981519152604482015290519081900360640190fd5b6002600181905554604080516370a0823160e01b815230600482015290516000926001600160a01b0316916370a08231916024808301926020929190829003018186803b158015610e4a57600080fd5b505afa158015610e5e573d6000803e3d6000fd5b505050506040513d6020811015610e7457600080fd5b5051905080610ec5576040805162461bcd60e51b81526020600482015260186024820152774552525f4e4f5448494e475f544f5f5245434f4e43494c4560401b604482015290519081900360640190fd5b600a54600254610ee2916001600160a01b0391821691168361172b565b600a54604080516001600160a01b0390921682526020820183905280517fa195dbbb3e5a259873c9e9865d547e8693262a378559ad7efb64666191780b639281900390910190a15060018055565b600254604080516370a0823160e01b8152306004820152905160009283926001600160a01b03909116916370a0823191602480820192602092909190829003018186803b158015610f8057600080fd5b505afa158015610f94573d6000803e3d6000fd5b505050506040513d6020811015610faa57600080fd5b5051600354604080516370a0823160e01b815230600482015290519293506000926001600160a01b03909216916370a0823191602480820192602092909190829003018186803b158015610ffd57600080fd5b505afa158015611011573d6000803e3d6000fd5b505050506040513d602081101561102757600080fd5b505190506000611035611782565b905061104b816110458585611787565b90611787565b935050505090565b600a546001600160a01b031690565b600354604080516370a0823160e01b815230600482015290516000926001600160a01b0316916370a08231916024808301926020929190829003018186803b1580156110ad57600080fd5b505afa1580156110c1573d6000803e3d6000fd5b505050506040513d60208110156110d757600080fd5b5051905090565b6110e6611485565b6000546001600160a01b03908116911614611136576040805162461bcd60e51b81526020600482018190526024820152600080516020611bb9833981519152604482015290519081900360640190fd5b6001600160a01b03811661117b5760405162461bcd60e51b8152600401808060200182810382526026815260200180611b936026913960400191505060405180910390fd5b600080546040516001600160a01b03808516939216917f8be0079c531659141344cd1fd0a4f28419497f9722a3daafe3b4186f6b6457e091a3600080546001600160a01b0319166001600160a01b0392909216919091179055565b6111de611485565b6000546001600160a01b0390811691161461122e576040805162461bcd60e51b81526020600482018190526024820152600080516020611bb9833981519152604482015290519081900360640190fd5b60026001541415611274576040805162461bcd60e51b815260206004820152601f6024820152600080516020611b73833981519152604482015290519081900360640190fd5b6002600181905550600084846040518083838082843760408051919093018190039020600081815260086020529290922054919550501592506112f5915050576040805162461bcd60e51b81526020600482015260116024820152704552525f534554544c455f45584953545360781b604482015290519081900360640190fd5b60008181526006602052604090205415801590611324575060008181526006602052604090206001015460ff16155b15611335576113338585611543565b505b6009805460018181019092557f6e1540171b6c0c960b71a7020d9f60077f6af931a8bbf590da0223dacf75c7af018290556000828152600860205260409020906113829082018787611aa2565b5083815560025461139d906001600160a01b0316848661172b565b306001600160a01b0316600560405180828054600181600116156101000203166002900480156114045780601f106113e2576101008083540402835291820191611404565b820191906000526020600020905b8154815290600101906020018083116113f0575b505091505060405180910390207f4db0691b564b0128897bbc27abdf9aff03f8a8325f87658085962d90aabdd8fa88888860405180806020018381526020018281038252858582818152602001925080828437600083820152604051601f909101601f1916909201829003965090945050505050a350506001805550505050565b3390565b611491611485565b6000546001600160a01b039081169116146114e1576040805162461bcd60e51b81526020600482018190526024820152600080516020611bb9833981519152604482015290519081900360640190fd5b600a80546001600160a01b038381166001600160a01b0319831617928390556040805192821680845293909116602083015280517fb2acc6aeb8e34e039efca33cef7c32bbb131a9cf351b43e1296d793364f693ab9281900390910190a15050565b600061154d611485565b6000546001600160a01b0390811691161461159d576040805162461bcd60e51b81526020600482018190526024820152600080516020611bb9833981519152604482015290519081900360640190fd5b600083836040518083838082843760408051919093018190039020600081815260066020529290922080549296509450501515915061161a9050576040805162461bcd60e51b815260206004820152601260248201527111549497d055551217d393d517d1561254d560721b604482015290519081900360640190fd5b6001818101805460ff191690911790558054600354611646916001600160a01b0390911690339061172b565b306001600160a01b0316600560405180828054600181600116156101000203166002900480156116ad5780601f1061168b5761010080835404028352918201916116ad565b820191906000526020600020905b815481529060010190602001808311611699575b5050604080519182900382208654602084018190528284529183018a905293507f4235c71bfde7f4d62e8d4d67b17e9ec2cdff2d762b1b15b990c70f3e09b9df9e925089918991908060608101858580828437600083820152604051601f909101601f1916909201829003965090945050505050a354949350505050565b604080516001600160a01b038416602482015260448082018490528251808303909101815260649091019091526020810180516001600160e01b031663a9059cbb60e01b17905261177d9084906117d0565b505050565b600090565b60006117c983836040518060400160405280601e81526020017f536166654d6174683a207375627472616374696f6e206f766572666c6f770000815250611881565b9392505050565b6060611825826040518060400160405280602081526020017f5361666545524332303a206c6f772d6c6576656c2063616c6c206661696c6564815250856001600160a01b03166119189092919063ffffffff16565b80519091501561177d5780806020019051602081101561184457600080fd5b505161177d5760405162461bcd60e51b815260040180806020018281038252602a815260200180611bd9602a913960400191505060405180910390fd5b600081848411156119105760405162461bcd60e51b81526004018080602001828103825283818151815260200191508051906020019080838360005b838110156118d55781810151838201526020016118bd565b50505050905090810190601f1680156119025780820380516001836020036101000a031916815260200191505b509250505060405180910390fd5b505050900390565b6060611927848460008561192f565b949350505050565b606061193a85611a9c565b61198b576040805162461bcd60e51b815260206004820152601d60248201527f416464726573733a2063616c6c20746f206e6f6e2d636f6e7472616374000000604482015290519081900360640190fd5b60006060866001600160a01b031685876040518082805190602001908083835b602083106119ca5780518252601f1990920191602091820191016119ab565b6001836020036101000a03801982511681845116808217855250505050505090500191505060006040518083038185875af1925050503d8060008114611a2c576040519150601f19603f3d011682016040523d82523d6000602084013e611a31565b606091505b50915091508115611a455791506119279050565b805115611a555780518082602001fd5b60405162461bcd60e51b81526020600482018181528651602484015286518793919283926044019190850190808383600083156118d55781810151838201526020016118bd565b3b151590565b828054600181600116156101000203166002900490600052602060002090601f016020900481019282601f10611ae35782800160ff19823516178555611b10565b82800160010185558215611b10579182015b82811115611b10578235825591602001919060010190611af5565b50611b1c929150611b5d565b5090565b604051806040016040528060008152602001606081525090565b604051806060016040528060008152602001600015158152602001606081525090565b5b80821115611b1c5760008155600101611b5e56fe5265656e7472616e637947756172643a207265656e7472616e742063616c6c004f776e61626c653a206e6577206f776e657220697320746865207a65726f20616464726573734f776e61626c653a2063616c6c6572206973206e6f7420746865206f776e65725361666545524332303a204552433230206f7065726174696f6e20646964206e6f742073756363656564a2646970667358221220f5eb85a7d2e73d7d7b92cc94cc4de8298d0d28a0f4f4dc2d88164455536d223564736f6c634300060c0033",
  "immutableReferences": {},
  "source": "// SPDX-License-Identifier: MIT\npragma solidity 0.6.12;\n\nimport \"./IUBIReconciliationAccount.sol\";\nimport \"./UBIBeneficiary.sol\";\n\n/**\n * @title Celo UBI reconciliation contract\n *\n * @dev This contract is a special version of a\n *      UBIBeneficiary that additionally sweeps\n *      cUSD to a known custodian address\n *\n * @author Aaron Boyd <https://github.com/aaronmboyd>\n */\ncontract UBIReconciliationAccount is IUBIReconciliationAccount, UBIBeneficiary {\n    address private custodian;\n\n    /**\n     * @notice constructor for UBIReconciliationAccount\n     *\n     * @param _cUSDToken      cUSD token contract\n     * @param _cUBIAuthToken  cUBIAUTH token contract\n     * @param _custodian      custodian address\n     *\n     * @dev Dummy userId of \"Reconciler\"\n     */\n    constructor(\n        IERC20 _cUSDToken,\n        ERC20PresetMinterPauser _cUBIAuthToken,\n        address _custodian\n    ) public UBIBeneficiary(_cUSDToken, _cUBIAuthToken, \"Reconciler\") {\n        _setCustodian(_custodian);\n    }\n\n    /**\n     * @notice reconcile the cUSD balance of this account and send to the custodian\n     *\n     */\n    function reconcile() external override onlyOwner nonReentrant {\n        uint256 cUSDBalance = cUSDToken.balanceOf(address(this));\n        require(cUSDBalance > 0, \"ERR_NOTHING_TO_RECONCILE\");\n        cUSDToken.safeTransfer(custodian, cUSDBalance);\n        emit Reconciled(custodian, cUSDBalance);\n    }\n\n    /**\n     * @notice update the custodian address\n     *\n     * @param _custodian   new custodian address\n     */\n    function setCustodian(address _custodian) external override onlyOwner {\n        _setCustodian(_custodian);\n    }\n\n    /**\n     * @notice Get the custodian address\n     */\n    function getCustodian() external view override returns (address) {\n        return custodian;\n    }\n\n    /**\n     * @notice Internal implementaiton of update the custodian address\n     *\n     * @param _custodian   new custodian address\n     */\n    function _setCustodian(address _custodian) private onlyOwner {\n        address previousCustodian = custodian;\n        custodian = _custodian;\n        emit CustodianUpdated(previousCustodian, custodian);\n    }\n}\n",
  "sourcePath": "/home/boyd/git/keyko/celo-ubi-contract/contracts/UBIReconciliationAccount.sol",
  "compiler": {
    "name": "solc",
    "version": "0.6.12+commit.27d51765.Emscripten.clang"
  },
  "schemaVersion": "3.3.2",
  "updatedAt": "2020-12-28T15:12:58.106Z",
  "devdoc": {
    "author": "Aaron Boyd <https://github.com/aaronmboyd>",
    "details": "This contract is a special version of a      UBIBeneficiary that additionally sweeps      cUSD to a known custodian address",
    "kind": "dev",
    "methods": {
      "authorizationBalance()": {
        "returns": {
          "_0": "uint256 authorization balance for this contract"
        }
      },
      "authorize(string,uint256)": {
        "params": {
          "_txId": "Dynamic string txId of the transaction to authorize",
          "_value": "uint256 transaction amount"
        }
      },
      "availableBalance()": {
        "returns": {
          "_0": "uint256 usable balance for this contract"
        }
      },
      "constructor": {
        "details": "Dummy userId of \"Reconciler\"",
        "params": {
          "_cUBIAuthToken": "cUBIAUTH token contract",
          "_cUSDToken": "cUSD token contract",
          "_custodian": "custodian address"
        }
      },
      "deauthorize(string)": {
        "details": "We don't need to specify the transaction size here because it is stored in the Authorization struct",
        "params": {
          "_txId": "Dynamic string txId of the transaction to de-authorize"
        }
      },
      "getAuthorizationAtKey(bytes32)": {
        "params": {
          "_key": "Map key of the Authorization to return"
        }
      },
      "getAuthorizationKeys()": {
        "details": "Note this is marked external, you cannot return dynamically sized data target is a Web3 caller for iterating Authorizations"
      },
      "getSettlementAtKey(bytes32)": {
        "params": {
          "_key": "Map key of the Settlement to return"
        }
      },
      "getSettlementKeys()": {
        "details": "Note this is marked external, you cannot return dynamically sized data target is a Web3 caller for iterating Settlements"
      },
      "owner()": {
        "details": "Returns the address of the current owner."
      },
      "renounceOwnership()": {
        "details": "Leaves the contract without owner. It will not be possible to call `onlyOwner` functions anymore. Can only be called by the current owner. NOTE: Renouncing ownership will leave the contract without an owner, thereby removing any functionality that is only available to the owner."
      },
      "setCustodian(address)": {
        "params": {
          "_custodian": "new custodian address"
        }
      },
      "settle(string,uint256,address)": {
        "details": "If there was an existing authorization for this txId, de-authorize it, for the original authorization amount, regardless of the current settlement amount",
        "params": {
          "_reconciliationAccount": "Reconciliation account to send the cUSD to during settlement",
          "_txId": "Dynamic string txId of the transaction to authorize",
          "_value": "uint256 transaction amount"
        }
      },
      "transferOwner(address)": {
        "details": "Adding transferOwner to facade implementation of UBIBeneficiary.transferOwnership from an interface object",
        "params": {
          "newOwner": "New owner address"
        }
      },
      "transferOwnership(address)": {
        "details": "Transfers ownership of the contract to a new account (`newOwner`). Can only be called by the current owner."
      }
    },
    "title": "Celo UBI reconciliation contract",
    "version": 1
  },
  "userdoc": {
    "events": {
      "AuthorizationEvent(bytes32,address,string,uint256)": {
        "notice": "Triggered when an amount has been pre-authorized for a user"
      },
      "CustodianUpdated(address,address)": {
        "notice": "triggered when the custodian has been updated"
      },
      "DeauthorizationEvent(bytes32,address,string,uint256)": {
        "notice": "Triggered when an amount has been de-authorized for a user"
      },
      "Reconciled(address,uint256)": {
        "notice": "triggered when an amount has been reconciled"
      },
      "SettlementEvent(bytes32,address,string,uint256)": {
        "notice": "Triggered when an amount has been settled for a user"
      }
    },
    "kind": "user",
    "methods": {
      "authorizationBalance()": {
        "notice": "retrieve authorization balance for this contract"
      },
      "authorize(string,uint256)": {
        "notice": "Store a new authorization "
      },
      "availableBalance()": {
        "notice": "retrieve available balance for this contract"
      },
      "constructor": "constructor for UBIReconciliationAccount",
      "deauthorize(string)": {
        "notice": "External method deauthorization"
      },
      "getAuthorizationAtKey(bytes32)": {
        "notice": "Return the primitive attributes of an Authorization struct"
      },
      "getAuthorizationKeys()": {
        "notice": "Return array of authorizationsKeys"
      },
      "getCustodian()": {
        "notice": "Get the custodian address"
      },
      "getSettlementAtKey(bytes32)": {
        "notice": "Return the primitive attributes of an Settlement struct"
      },
      "getSettlementKeys()": {
        "notice": "Return array of settlementKeys"
      },
      "reconcile()": {
        "notice": "reconcile the cUSD balance of this account and send to the custodian"
      },
      "setCustodian(address)": {
        "notice": "update the custodian address"
      },
      "settle(string,uint256,address)": {
        "notice": "Perform a settlement by returning cUSD token to the reconciliation contract"
      },
      "transferOwner(address)": {
        "notice": "Transfer ownership of the UBIBeneficiary"
      }
    },
    "version": 1
  }
}